:020000040800F2
:10000000600D0020ED0100085F5B000881540008CE
:100010005D5B0008890A0008696D000800000000A7
:10002000000000000000000000000000455D000826
:10003000F30B000800000000615B0008475D00084A
:10004000070200080702000807020008070200086C
:10005000070200080702000807020008070200085C
:10006000070200080702000807020008250B000825
:10007000310B0008450B00080702000807020008C2
:100080000702000800000000090900080702000834
:1000900007020008010C00080D0C0008F50B000811
:1000A000070200080702000807020008070200080C
:1000B0000702000807020008CD5D000807020008DB
:1000C00007020008070200080702000807020008EC
:1000D000070200085D6D000807020008070200081B
:1000E00007020008070200080702000807020008CC
:1000F00007020008070200080702000800000000CD
:1001000000000000070200080000000007020008CD
:10011000070200080000000007020008D95D00087F
:10012000070200080702000807020008070200088B
:10013000070200080000000000000000070200089D
:10014000070200080702000800000000000000008D
:10015000000000000000000000000000000000009F
:10016000000000000000000000000000070200087E
:10017000070200080000000000000000000000006E
:10018000000000000702000800000000000000005E
:10019000000000000000000000000000000000005F
:1001A000000000000000000007020008070200082D
:1001B000070200080702000807020008000000000C
:1001C000000000000702000800000000000000001E
:1001D0000702000807020008DFF80CD000F056FB09
:1001E00000480047D9800008600D0020064880477D
:1001F00006480047FEE7FEE7FEE7FEE7FEE7FEE70C
:10020000FEE7FEE7FEE7FEE7B15D0008D901000862
:100210002DE9F05F0546002092469B46884606463B
:10022000814640241BE0284641464746224600F0CE
:1002300046FA53465A46C01A914110D31146184601
:10024000224600F02DFA2D1A67EB01084F46224690
:100250000120002100F024FA17EB00094E41201E76
:10026000A4F10104DFDC484631462A464346BDE896
:10027000F09F40EA01039B0703D009E008C9121F61
:1002800008C0042AFAD203E011F8013B00F8013B50
:10029000521EF9D27047D2B201E000F8012B491E7C
:1002A000FBD270470022F6E710B513460A46044613
:1002B0001946FFF7F0FF204610BD2DE9FE4F80469E
:1002C00081EA0300C00F0C46009021F0004123F0AA
:1002D0000045B8EB0200A94105D2404621469046B0
:1002E0001C460B46024623F00040104347D0270D22
:1002F000C7F30A00C3F30A510290401A0190402844
:100300006BDAC3F3130040F4801B0098924620B1CF
:100310000023D2EB030A63EB0B0B01985946C0F1A3
:100320004002504600F0BCF906460D46504659467C
:10033000019A00F0D4F910EB08006141002487EA2B
:10034000115284EAE7731A4340D0009A62B3019ACB
:10035000012A4FEA075215DC001B61EB02014FF046
:10036000004202EA0752CDE90042001C41F580112B
:1003700032462B4600F00BFA03B0BDE8F08F404642
:100380002146F9E7001B61EB0201001C41F58013D7
:1003900000185B412018A2F5001747EB030140EA63
:1003A000D570B6196D4111E06D084FEA360645EA81
:1003B000C0754FEA0752001B61EB0201001C41F5BA
:1003C000801149084FEA30000019514132462B464E
:1003D00003B0BDE8F04F00F0CBB900980122400017
:1003E0000023D0EB020263EBE073009821464FEA52
:1003F000E074B8EB000061EB0401E9E783F000432F
:100400005BE781F0004158E72DE9FE4F81EA0304E4
:1004100004F0004421F0004100944FF0000B23F061
:10042000004350EA01045ED052EA03045BD0C3F3F8
:100430000A54C1F30A552C44A4F2F3340194A0FBEE
:100440000254C1F3130141F48011C3F3130343F4C5
:10045000801301FB024400FB034E840A970A44EA1E
:10046000815447EA8357A4FB076802958D0A05FB70
:1004700007854FEA932C04FB0C542705029D4FEA95
:10048000065847EA1637B5EB08056EEB070C870EE2
:10049000920E47EA811742EA8312A7FB0201B6EBEC
:1004A0000B0164EB00042B0D43EA0C335E1844EBA4
:1004B0001C50DA465146E7FB0201C5F313044FEA2C
:1004C0000B3343EA14534FEA0432019C43EA060318
:1004D000A4F10C040294009CCDE900B400F057F99B
:1004E00003B0BDE8F08F00200146F9E72DE9F04D9B
:1004F00081EA030404F0004B21F0004514464FF05C
:10050000000A23F0004150EA050220D054EA01021B
:100510001DD0C5F30A570246C5F31303C1F31300F8
:10052000C1F30A5640F4801543F48013A7EB060884
:10053000101BD64608F2FD3873EB050002D308F114
:10054000010801E092185B41B8F1000F03DA0020C6
:100550000146BDE8F08D00204FF480110646844628
:100560000EE0171B73EB050705D3121B63EB0503A6
:1005700006434CEA010C49084FEA300092185B41EF
:1005800050EA0107EDD152EA030012D082EA0400DA
:1005900083EA0501084305D0101BAB4106D20122B6
:1005A000002306E000224FF0004302E06FF001025A
:1005B00053101AEB06004CEB085110EB0A0041EB0C
:1005C0000B01BDE8F04D00F0D3B80EB540F2334159
:1005D00002910021CDE900110A460B4600F0D7F840
:1005E00003B000BDC1F30A5210B5C1F3130140F2CC
:1005F000FF3341F480119A4201DA002010BD40F22D
:1006000033439A42A2F2334203DC524200F057F8DD
:1006100010BD904010BD00F0004230F000400AD004
:10062000C10D01F56071C0F3160042EA0151C20824
:1006300040071143704700200146704701F0004316
:1006400030B421F0004150EA010206D00A0DA2F5B3
:100650006072C1F31301002A02DC30BC0020704735
:10066000440F44EAC104C100E01830BC00EBC250A2
:1006700000F047B830B50B46014600202022012487
:1006800009E021FA02F59D4205D303FA02F5491B60
:1006900004FA02F52844151EA2F10102F1DC30BD76
:1006A000202A04DB203A00FA02F100207047914032
:1006B000C2F1200320FA03F3194390407047202A27
:1006C00004DB203A21FA02F00021704721FA02F3FC
:1006D000D040C2F120029140084319467047202AB9
:1006E00006DBCB17203A41FA02F043EAE07306E05A
:1006F00041FA02F3D040C2F120029140084319466A
:1007000070470029A8BF7047401C490008BF20F06F
:100710000100704710B4B0FA80FC00FA0CF050EA07
:10072000010404BF10BC704749B1CCF1200421FA88
:1007300004F411FA0CF118BF012121430843A3EB83
:100740000C01CB1D4FEA00614FEA102042BF002090
:1007500010BC704700EBC35010440029A4BF10BC6C
:100760007047401C490008BF20F0010010BC7047D2
:1007700010B5141E73F1000408DA401C41F10001A9
:1007800092185B411A4301D120F0010010BD2DE900
:10079000F04D92469B4611B1B1FA81F202E0B0FAF7
:1007A00080F220329046FFF77BFF04460F4640EA76
:1007B0000A0041EA0B0153465A46084313D011463A
:1007C00053EA010019D0C8F140025046FFF777FF05
:1007D00005460E46504659464246FFF761FF08431C
:1007E00005D0012004E020463946BDE8F08D002008
:1007F000054346EAE0762C4337430A986305E40A4A
:10080000A0EB08000022FD0A44EA47540A3002D552
:1008100000200146E9E7010510196941DDE90845B5
:1008200000196941BDE8F04DA2E7C1F30A52C1F3D6
:10083000130140F2FF3341F480119A4202DA0020A2
:100840000146704740F233439A42A2F2334202DC3F
:100850005242FFF734BFFFF723BF000030B5041E3C
:1008600071F1000404DB4FF00044404264EB0101ED
:10087000141E73F1000405DB1C464FF00043524286
:1008800063EB0403994208BF904230BD064C074D0C
:1008900006E0E06840F0010394E807009847103450
:1008A000AC42F6D3FFF79CFCA89E0008C89E000847
:1008B00070B58C1810F8015B15F0070301D110F822
:1008C000013B2A1106D110F8012B03E010F8016B4F
:1008D00001F8016B5B1EF9D12B0705D40023521ED2
:1008E0000DD401F8013BFAE710F8013BCB1A921C3A
:1008F00003E013F8015B01F8015B521EF9D5A14238
:10090000D8D3002070BD00000E4810B590F82A0022
:1009100020B1012802D0022803D004E007F052FBE6
:1009200001E006F0FDFF084940200968086006481C
:1009300000F0D8FC044801F0F9F8BDE81040034885
:1009400001F0F4B8000000202402002090020020F2
:1009500010B5846AE16D11F0500F06D0E16DC90643
:1009600025D5204601F0E0F810BDE06D40F40070A0
:10097000E06520680168090716D504F09EFD78B18E
:100980002068C068800400280ADBE06D20F48070D5
:10099000E065E06DC00403D4E06D40F00100E06567
:1009A000204601F0BFF810BDC0688007EBE7616D1D
:1009B000496BBDE81040084710B5806AC16D41F031
:1009C0004001C165016E41F00401016601F0ACF81F
:1009D00010BD10B5806A01F0A6F810BDF8B5044648
:1009E000002000902068816811F0010F41D18168DA
:1009F000214A11422ED18168D5432940491C81608A
:100A00001E48806800F0E07000020DD51C481D49AA
:100A10000068B0FBF1F0401C00EB4000800000E0FB
:100A2000401E00900028FBD102F03CFC06461BE073
:100A3000816811F0010F03D181682940491C816050
:100A400002F030FC801B02280ED920680068C043E9
:100A5000C00709D0E06D40F01000E065206E40F066
:100A6000010020660120F8BD20680168C943C9075C
:100A7000DED10020F8BD00003F00008000030050E0
:100A80001C020020400D0300FEE7000030B50023EB
:100A900008E000BF01EB8304056824684FEA344492
:100AA0002C605B1CB3EB520FF4D3D20703D0026867
:100AB00031F8231011800068006830BD70B5002344
:100AC0000BE000BF01EB83042568E4782DBA25F024
:100AD000FF052543046825605B1CB3EB920FF1D33F
:100AE00094071BD002F00304012C03D1066811F80F
:100AF00023503570022C05D101EB8304056824884E
:100B000064BA2C80D243920708D101EB83020368B8
:100B1000118849BA198091780268117000680068DC
:100B200070BD0000014801F0DCBC0000FC020020A8
:100B300010B507F067FABDE81040014801F0D1BCDC
:100B4000AC040020014801F0CCBC00000C050020E2
:100B50000D4902688A4201D20C4901E00B4920315B
:100B6000D2B21423083AB2FBF3F2436C02F01F0234
:100B700023F003031944816404498031C1640121D5
:100B800091400165704700000804024000080240DF
:100B90000179074A02EB81024265054A4432491E47
:100BA000826501F01F0201219140C165704700007C
:100BB000FC08024030B5D0E913456560446D14B1BE
:100BC000D0E91645656090F8444004F01F05012403
:100BD000AC40056C6C60046863608368102B03682C
:100BE00003D099600068C26030BD9A600068C1603F
:100BF00030BD7047202002F013BA72B6FEE7000045
:100C0000014801F0EEBE000080030020014801F021
:100C1000E8BE000080030020F0B5D1E901650C6951
:100C20002C430D68C6B145F080452C43D1E90665DB
:100C3000354391F820704E69406D46EA07663543AA
:100C40008E8903EBC30300EBC30045EA0645E0E8E9
:100C500002450023084C0AE044EA8544E6E7D6183A
:100C6000D55CD6F801601B1D45EA062520C0CD687D
:100C7000655D9D42F3D8F0BD589E0008144A117F6F
:100C80001448012901D003290FD1036823F400730C
:100C90000360036843F400630360036823F40063A4
:100CA0000360036843F400730360022901D0032941
:100CB0000BD1016841F480510160016821F4805139
:100CC0000160016841F48061016000201077704785
:100CD000FC01002000200240C107054803D0416903
:100CE00041F004014161416941F480314161704743
:100CF0000020024008494A69C0B222F4FC7242EA6C
:100D0000C0004861486940F002004861486940F409
:100D1000803048617047000000200240054910B54E
:100D20004C6944F001044C610260BFF36F8F436073
:100D300010BD000000200240094A10B5546940234C
:100D400044F480245461EFF3108272B610C95B1E24
:100D500010C013F0FF03F9D182F3108810BD00001A
:100D60000020024070B5064602F09CFA0546134C7E
:100D700007E000BF02F096FA401BB04201D9032001
:100D800070BD2069C003F5D420694CF2FA310840E7
:100D90000CD00B494A6802434A60810F01D0A16917
:100DA000A161810000D02061012070BD2069C007D1
:100DB00001D001202061002070BD00000020024011
:100DC000FC010020704700002DE9F84F4FF00008AB
:100DD0000446CDF800800D4694F85820DFF8EC93D7
:100DE000616947464046012A0AD00126F84A84F83C
:100DF000586041B1296A012905D0A36EEBB129E001
:100E00000220BDE8F88F6868092838D1A96A4FF434
:100E1000785041B12B6801F07C0100EA534008434F
:100E2000E96A084302E0296800EA51402168CB6C76
:100E300013400343CB64606621E0C4E91971A96AD9
:100E4000286A31B101F07C01401E0843E96A084379
:100E500000E0401E29682B79C1F3846103F01F0371
:100E600099400143A06E401EA066636E43EA0103F1
:100E7000636604D12068C16C11401943C1642068C5
:100E800004F00FFB58B995F8250098B12068C168A7
:100E900095F8262021F4401141EA4251C1602068B2
:100EA00004F007FB8246206804F0FBFA5AEA0000CF
:100EB0000DD0FBE095F8260095F82410400540EA97
:100EC00001512068C26822F440121143E6E7A86A83
:100ED00030B1E86A20B195F8250001285ED003E022
:100EE00095F82500012804D02068C16821F0007120
:100EF00003E02068C16841F00071C16095F83000DE
:100F0000012852D02068016921F002010161AA681C
:100F100029682068B2F1004F38D004F0E5FA206863
:100F2000416921F00041416120686969C268C2F3EA
:100F3000C102520091402A69042A44D000EB820089
:100F40002B68026EDFF88CC203F0F84302EA0C0251
:100F50000B431A4342F00041016620682A69A969DF
:100F600000EB8200026E22F080720A430266297F43
:100F700022682869012923D05FF0000102EB80007C
:100F8000026E22F000720A4302668FE0002204F033
:100F9000ABFA2068416941F00041C4E7E06D40F0E0
:100FA0002000E0654FF00108A8E7D5E90D100143E6
:100FB0002068026922F4FF7242F002021143A5E7A1
:100FC0004FF00071DAE7002104F061FA4003206875
:100FD0004FF0000172D004F05AFA90FAA0F0B0FA83
:100FE00080F1286842036ED090FAA0F0B0FA80F049
:100FF000814204D100221146206804F08CFA0121BC
:10100000206804F044FA400320684FF001015DD0ED
:1010100004F03DFA90FAA0F0B0FA80F1286842039B
:1010200059D090FAA0F0B0FA80F0814204D10022A9
:101030000121206804F06FFA0221206804F027FAE9
:10104000400320684FF0020148D004F020FA90FAE3
:10105000A0F0B0FA80F12868420344D090FAA0F0E2
:10106000B0FA80F0814204D100220221206804F00D
:1010700052FA0321206804F00AFA400320684FF076
:10108000030133D004F003FA90FAA0F0B0FA80F133
:10109000286842032FD090FAA0F0B0FA80F0814285
:1010A00004D100220321206804F035FA2068816809
:1010B00011F0010F22D0B6E000E004E004F0E7F9FF
:1010C000C0F384618DE7C0F3846091E704F0DFF939
:1010D000C0F38461A2E7C0F38460A6E704F0D7F907
:1010E000C0F38461B7E7C0F38460BBE704F0CFF9D5
:1010F000C0F38461CCE7C0F38460D0E72A7B296821
:1011000050F8B03FC1F3120C23EA0C0302F0180CA4
:10111000314A22FA0CF20A4013430360E968494558
:101120007ED1286841031CD090FAA0F1B1FA81F178
:10113000491C01F01F0109294FEA403132D800292A
:1011400012D000BF90FAA0F1B1FA81F101F10101D2
:1011500001F01F0106FA01F609D100BFC0F3846156
:1011600009E0C0F38461E3E7C0F38461EEE790FA3D
:10117000A0F1B1FA81F101F1010101F01F0146EA8C
:10118000816102D1C0F3846003E090FAA0F0B0FA6C
:1011900080F000F1010000F01F0000EB400041EA88
:1011A00000513AE000290ED090FAA0F1B1FA81F195
:1011B00001F1010101F01F0106FA01F60ED100BF95
:1011C000C0F384610EE0C0F38461F1E700007F406A
:1011D0000040100400F0FF03FFFF070090FAA0F1A9
:1011E000B1FA81F101F1010101F01F0146EA8161CB
:1011F00002D1C0F3846003E090FAA0F0B0FA80F06E
:1012000000F1010000F01F002B4A00EB400002EB50
:10121000005041EA000141F00071AA68206800E036
:1012200001E004F061F925482A68024240D02448D0
:101230008168244B01F0E0719A4202D0224B9A421D
:101240001BD10B0219D42268B2F1A04F30D18268B1
:1012500041F4000122F0E0720A4382601B481C49FD
:101260000068B0FBF1F0801C00EB4000800000E063
:10127000401E00900028FBD11AE0164D164BAA42E2
:1012800007D1CD0105D422689A4211D041F0807176
:1012900009E0124DAA420BD14A0209D422689A42AF
:1012A00006D041F48001826822F0E0720A43826035
:1012B00084F858704046A4E5000020FE0000088035
:1012C00000030050000021C31000C0901C02002049
:1012D000400D0300000052C700010050000084CB05
:1012E000704700002DE9F0412DED088B0668B6F13E
:1012F000A04F40D1784D2978F1B3D6F88810D5EDBC
:10130000010A00EE101AB8EE400A70EE600A9FED76
:10131000730A60EE800AC5ED120A0168D1F88410E4
:1013200095ED021A00EE901AF8EE600A70EEC10A0E
:1013300060EE800AC5ED130A0068D0F8800095EDD4
:10134000031A00EE900A2846F8EE600A70EEC10A11
:1013500020EE800A85ED140A698F808F01297DD0E7
:10136000002908D1002806D15D490A6850630A683F
:1013700090630968C86300E003E0BDEC088BBDE83A
:10138000F081584C2778642F25D2D6F88800803613
:10139000FFF71BF994ED0E1B53EC112BFEF78DFF9D
:1013A000C4E90E017068FFF710F994ED101B53ECBF
:1013B000112BFEF782FFC4E910013068FFF705F931
:1013C00094ED121B53EC112BFEF777FFC4E91201C9
:1013D0007F1C2770CFE79FED448B94ED0E0B53ECF1
:1013E000182B51EC100BFFF781F841EC1B0B53EC61
:1013F000182B84ED0EBB94ED100B51EC100BFFF786
:1014000075F841EC1A0B53EC182B84ED10AB94EDEE
:10141000120B51EC100BFFF769F841EC190B53EC70
:101420001A2B84ED129B51EC1B0BFEF746FF53EC7D
:10143000192BFEF742FF9FED2E1B53EC112BFFF7EC
:1014400055F841EC180B51EC1B0B84ED0C8B53EC55
:10145000182BFEF7D3FFFFF7F1F800E033E0044666
:1014600053EC182B51EC1A0BFEF7C8FFFFF7E6F808
:10147000074653EC182B51EC190BFEF7BFFFFFF793
:10148000DDF806462046FFF7C6F853EC182BFEF7AA
:1014900014FFFFF7D3F868603846FFF7BCF853EC49
:1014A000182BFEF70AFFFFF7C9F8A8603046FFF7D0
:1014B000B2F853EC182BFEF700FFFFF7BFF8E86017
:1014C0000120287057E7002884D1BDEC088BBDE8C7
:1014D000F04106F0CDBB0000000000200000B03B52
:1014E0006C05002038010020000000000000594079
:1014F0000000000000000840704700002DE9F041A6
:1015000004464548806800F01F05206803F0C9FFC5
:1015100008BB2168C868C96C00F0004011F4C07FA6
:1015200000D190B194F85800012814D0012084F81B
:1015300058002046FFF752FA01004FF000020CD08D
:1015400084F858200846BDE8F081E06D40F02000A6
:10155000E0650120F7E70220F5E7E06DC00504D55E
:10156000206E20F00800206600E02266E06D42F266
:101570000103984340F48050E065284B20684FF009
:10158000A046984201D1374600E00746874200D086
:101590001DB9E76D27F48017E7656027076084F8B9
:1015A00058202068C268920203D5426842F48062E3
:1015B0004260A06908282068426807D022F04002F3
:1015C00042602068426842F0200206E022F02002D9
:1015D00042602068426842F04002426020689842BF
:1015E00001D1324600E00246824209D045B1062DC3
:1015F00006D0072D04D0E06D40F48010E065A1E72F
:10160000C26812F0007F9DD18268054B1A4042F0FB
:101610000802826096E700000003005000010050BD
:10162000C0FFFF7F704770472DE9F047044690F8F0
:1016300058009CB00E464FF00009012815D001203B
:1016400084F8580000251795189520684FF0A04899
:1016500040450ED1284F0097384603F02AFF8246B6
:10166000206803F026FF60B10EE002201CB0BDE848
:10167000F087E06D40F02000E06584F858500120CC
:10168000F4E7BAF1000F09D0E06D40F02000E0650A
:101690004FF0010984F858504846E7E71748326888
:1016A00040F61F71002A826822F4604216D094F836
:1016B000383042EA433273681A438260D8F808200F
:1016C000BB6802F0010203F001031A43E2D1B368E0
:1016D00032681A4383688B431A430BE08260D8F860
:1016E0000820BB6802F0010203F001031A43D1D1C4
:1016F00082688A438260CDE70001005000030050F9
:101700002DE9F84F00270446009790F85800DFF8BD
:10171000E0930D46B846012811D0012684F85860A0
:10172000206803F0C2FE60B1E06D40F02000E0658B
:101730005FF0010784F858803846BDE8F88F022032
:10174000FBE7D5E900210C23206803EA9113184434
:10175000036B01F01F014FF01F0C0CFA01FCC2F3E8
:10176000846223EA0C038A4013430363206803F076
:101770009CFE8246206803F090FE5AEA00003CD1AD
:10178000AA6829682068B2F1004F37D003F09DFEA7
:101790002068416921F00041416120686969C2689F
:1017A000C2F3C102520091402A69042A31D000EBF1
:1017B00082002B68026EDFF83CC303F0F84302EAB4
:1017C0000C020B431A4342F00041016620682A696B
:1017D000A96900EB8200026E22F080720A43026661
:1017E000297F22682869012910D0002102EB80009E
:1017F000026E22F000720A4302667DE0002203F0CE
:1018000064FE2068416941F00041C5E74FF0007176
:10181000ECE7002103F035FE400320684FF00001A3
:1018200072D003F02EFE90FAA0F0B0FA80F1286892
:1018300042036ED090FAA0F0B0FA80F0814204D159
:1018400000221146206803F05EFE0121206803F0AB
:1018500018FE400320684FF001015DD003F011FE37
:1018600090FAA0F0B0FA80F12868420359D090FABB
:10187000A0F0B0FA80F0814204D10022012120685A
:1018800003F041FE0221206803F0FBFD40032068C5
:101890004FF0020148D003F0F4FD90FAA0F0B0FA46
:1018A00080F12868420344D090FAA0F0B0FA80F0AA
:1018B000814204D100220221206803F024FE03218A
:1018C000206803F0DEFD400320684FF0030133D0B1
:1018D00003F0D7FD90FAA0F0B0FA80F12868420337
:1018E0002FD090FAA0F0B0FA80F0814204D100220B
:1018F0000321206803F007FE2068816811F0010FC2
:1019000022D0ACE000E004E003F0BBFDC0F3846152
:101910008DE7C0F3846091E703F0B3FDC0F3846109
:10192000A2E7C0F38460A6E703F0ABFDC0F38461D7
:10193000B7E7C0F38460BBE703F0A3FDC0F38461A5
:10194000CCE7C0F38460D0E72A7B296850F8B03F29
:10195000C1F3120C23EA0C0302F0180C664A22FAB7
:101960000CF20A4013430360E968494577D12868BF
:1019700041031CD090FAA0F1B1FA81F1491C01F0A9
:101980001F0109294FEA403132D8002912D000BF87
:1019900090FAA0F1B1FA81F101F1010101F01F010A
:1019A00006FA01F609D100BFC0F3846109E0C0F373
:1019B0008461E3E7C0F38461EEE790FAA0F1B1FA45
:1019C00081F101F1010101F01F0146EA816102D1BB
:1019D000C0F3846003E090FAA0F0B0FA80F000F168
:1019E000010000F01F0000EB400041EA005132E02E
:1019F00000290ED090FAA0F1B1FA81F101F10101B4
:101A000001F01F0106FA01F606D100BFC0F38461A0
:101A100006E0C0F38461F1E790FAA0F1B1FA81F138
:101A200001F1010101F01F0146EA816102D1C0F319
:101A3000846003E090FAA0F0B0FA80F000F10100B9
:101A400000F01F002D4A00EB400002EB005041EA7D
:101A5000000141F00071AA68206803F036FD2848B3
:101A60002A6802423FF466AE26488168264B01F0A0
:101A7000E0719A4202D0254B9A421CD10B021AD433
:101A80002268B2F1A04F7FF455AE826841F40001A4
:101A900022F0E0720A4382601D481E490068B0FBD4
:101AA000F1F0401C00EB4000800000E0401E009080
:101AB0000028FBD13EE6184D184BAA4207D1CD01B4
:101AC00005D422689A42F5D041F0807109E0144DA6
:101AD000AA42EFD14A02EDD422689A42EAD041F4F8
:101AE0008001826822F0E0720A43826022E60000F0
:101AF00000007F4000F0FF03FFFF0700000020FE12
:101B00000000088000030050000021C31000C090B6
:101B10001C020020400D0300000052C700010050CD
:101B2000000084CB70477047704700002DE9F05FDC
:101B30000446006806684568DFF854B2DBF8080020
:101B400000F01F07B0070ED5A8070CD5E06DC00642
:101B500003D4E06D40F40060E0652046FFF732F901
:101B6000216802200860DFF82CA270074FF0A0481F
:101B700001D5680703D4300737D5280735D5E06D80
:101B8000C00603D4E06D40F40070E065206803F007
:101B900094FC20B32068504501D1424600E0024643
:101BA000824208D03FB1052F05D0092F03D0504500
:101BB00003D1414602E0C16801E00146C9688904D9
:101BC0000DD4016809070AD503F06FFC58B3E06D26
:101BD00040F01000E065206E40F0010020662046D5
:101BE000FFF7A0FF21680C200860B00601D5A80609
:101BF00003D4700658D5680656D5E06DC00603D4E8
:101C0000E06D40F40050E0652068C16C11F4C07FC5
:101C10001AD00021894603F050FC02462068504546
:101C200014D1434613E02068416821F00C01416063
:101C3000E06D20F48070E065E06DC004CFD4E06D0D
:101C400040F00100E065CAE70121E3E70346834273
:101C500008D03FB1062F05D0072F03D0504503D140
:101C6000414602E0C16801E00146C968B9F1000FD0
:101C700014D08B0102D58AB18A040FD402685206AF
:101C80000CD589020AD403F008FCE8B3E06D40F0FB
:101C90001000E065206E40F0010020662046FFF74E
:101CA0001FFB21686020086030060BD5280609D587
:101CB000E06D40F48030E065204600F067F921686F
:101CC00080200860F0050CD5E8050AD5E06D40F4E9
:101CD0000030E0652046FFF7A5FC21684FF48070D6
:101CE0000860B0050CD5A8050AD5E06D40F4802049
:101CF000E0652046FFF797FC21684FF4007008600C
:101D0000F0062ED5E80600E008E02AD5E06BD0B159
:101D1000AFB1DBF8080000F4604013E020684168D0
:101D200021F060014160E06D20F48050E065E06DDD
:101D3000C005B3D4E06D40F00100E065AEE7206877
:101D4000C068C00750B1E06D40F48060E065206E6F
:101D500040F0020020662046FFF7E6FE21681020D2
:101D60000860700512D5680510D5E06D40F480401C
:101D7000E065206E40F00800206621684FF4806026
:101D800008602046BDE8F05FFFF7B6BBBDE8F09FF6
:101D90000003005000010050F8B54FF000050400AA
:101DA0002E46009502D0E06D10B107E00120F8BD8D
:101DB000204600F0EDF8266684F8586020688168B7
:101DC000C1F3407119B18168684A1140816020688F
:101DD0008168C1F3007189B98168654A114041F099
:101DE00080518160634864490068B0FBF1F04000B5
:101DF000801C00E0401E00900028FBD12068816814
:101E0000C1F3007141B9E16D41F01001E165216E4E
:101E100041F001012166012503F047FBE16DC90690
:101E200000D430B1E06D40F01000E0650125284697
:101E3000F8BDE06D20F4807040F00200E06520689D
:101E4000806810F0010F11D14FF0A04080684B491D
:101E500000F00100896801F00101084306D14848FB
:101E60006168826822F47C120A438260E168E06B58
:101E7000627F0843A16841EA4231084394F8241084
:101E800040EA0140012904D1218D3E4A02EB414143
:101E90000843E16A29B101F47871226B014342EAF7
:101EA00001002268D168384B19400143D160206895
:101EB0000169626B21F0406111430161206803F008
:101EC000ECFA70BB207F94F83810800340EA41029E
:101ED0002168C86844F2020398431043C86020692F
:101EE0000028206801690AD041F48031016120682E
:101EF00050F8C01F22696FF30D01114307E021F470
:101F000080310161206850F8C01F6FF30D0101603E
:101F100094F8400001280CD02068016921F00101EB
:101F20000161606901282068016B21F00F0111D067
:101F300013E0D4E911010843D4E913121143084313
:101F400021680A6940F2FC739A43104340F0010093
:101F50000861E6E7226A521E11430163E06D20F03A
:101F6000020040F00100E06561E70000C0FFFF5F94
:101F7000C0FFFF7F1C020020400D03000001005045
:101F8000000300500000FEFF0740F0FF7047000014
:101F90002DE9F04198B00546142111A8FEF782F909
:101FA00044216846FEF77EF94FF4004128688A0311
:101FB000444F0326444C4FF00008B0F1A04F10D01E
:101FC000424B98427BD10F926846009101F068FA2B
:101FD00008B1FEF712FE3868401C3860012826D090
:101FE0002DE00F926846009101F05AFA08B1FEF711
:101FF00004FE3868401C3860012807D1E06C40F4CA
:102000000050E064E06C00F400501690E06C40F08A
:102010000100E064E06C11A900F0010016900720B7
:1020200081E841014FF0904001F006F83FE0E06C9C
:1020300040F40050E064E06C00F400501690E06C56
:1020400040F00400E064E06C00F004001690E06CE6
:1020500040F00200E064E06C11A900F0020016906C
:102060001020474681E8C100194800F0E5FF11A99A
:1020700040F6040081E8C100164800F0DDFF174C6F
:10208000154820602420C4E901078020C4E90370BA
:10209000800060618000A0612020C4E9070720461D
:1020A00000F07CFA08B1FEF7A8FD6C65A56200227D
:1020B0001146122001F05CF9122001F04BF918B022
:1020C000BDE8F08130010020001002400001005006
:1020D000000800480004004808000240FC020020FC
:1020E0002DE9F04104463848806800F01F0520685B
:1020F00003F0DBF918B102210846BDE8F08194F83D
:10210000580001280CD0012084F858002046FEF722
:1021100065FC01004FF0000304D084F85830EBE771
:102120000220EAE7E06D40F60162904340F48070DF
:10213000E065264A20684FF0A046904201D137461C
:1021400000E00746874200D01DB9E76D27F48017ED
:10215000E765E76DFF0404D5276E27F006072766BD
:1021600000E023661C27076084F8583020689042FE
:1021700001D1334600E00346834215D0A5B1052DB9
:1021800012D0092D10D0E36D43F48013E365904223
:1021900000D13046C0688001AED5E06D20F400501B
:1021A00040F48050E065A7E7C268920105D5E26D72
:1021B00022F4005242F48052E2658268044B1A40D5
:1021C000121D826098E700000003005000010050DB
:1021D000C0FFFF7F2DE9F04104463448174688468A
:1021E000806800F01F05206803F05FF900285AD1CD
:1021F00094F85800012856D0012084F85800002691
:1022000025B1052D02D0092D00D003E02046FEF7B0
:10221000E5FB18B184F85860BDE8F081E06D40F648
:102220000161884340F48070E0652149206888425C
:1022300002D14FF0A04100E00146814200D01DB91B
:10224000E06D20F48010E065E06DC00404D5206EE0
:1022500020F00600206600E02666616D1548C86221
:10226000616D15480863616D1448486321681C203E
:10227000086084F858602068416841F010014160AE
:102280002068C16841F00101C16021683B464246B7
:102290004031606D00F0E2F921688A68084B1A400D
:1022A000121D8A60B8E70220B6E700000003005064
:1022B0000001005051090008D3090008B9090008BD
:1022C000C0FFFF7FF0B504460020CB0711D01E23CE
:1022D0005FF0010603F01F0706FA07F50D4201D172
:1022E0005B1EF7D27AB1082A0BD0102A06D0182A22
:1022F00001D00120F0BD072BFBD204E0082BF8D25F
:1023000001E0102BF5D22368596121688B6823F016
:10231000180313438B60F0BD70B504460020022300
:10232000637723689D6845F001059D60236A012B52
:102330000ED0022B10D0032B11D104E0256851F8E8
:1023400020302B60401C9042F8D32068006806E0E3
:102350002046FEF7B3FB02E02046FEF797FB012183
:10236000617770BD10B5040010D0607F20B90020E7
:102370002077204600F030F802206077207938B1CD
:10238000D4E902122046FFF79DFF48B1012010BD9D
:102390002168104848612068816821F01801816037
:1023A0006079A0B12069216808612068816862694C
:1023B00021F060011143816020688168A26921F0E9
:1023C00080011143816001206077002010BD4FF033
:1023D000FF30E8E7B71DC10408B500680649884228
:1023E00008D10648816C41F480518164806C00F40E
:1023F0008050009008BD00000030024000100240F4
:1024000010B590F8253000210122022B03D00421C1
:10241000C163012122E003681C6824F00E041C60E3
:10242000836C1C6824F480741C6003681C6824F0AE
:1024300001041C6090F84430046C03F01F0302FA9E
:1024400003F36360D0E913345C60436D33B11C68FF
:1024500024F480741C60D0E916345C6080F8252078
:10246000002280F82420084610BD70B590F8252081
:10247000002401212346022A07D00422C26380F8E7
:10248000251080F82430012429E00268156825F021
:102490000E0515600268156825F001051560826C4F
:1024A000156825F48075156090F84420056C02F0DD
:1024B0001F0201FA02F26A60D0E913255560426DED
:1024C00032B1156825F480751560D0E91625556080
:1024D00080F8251080F82430816B01B188472046B0
:1024E00070BDF0B4016C0C6801680D6890F8442070
:1024F00002F01F06042202FA06F3234211D06B07F2
:102500000FD50B689B0603D40B6823F004030B6004
:1025100090F8441001F01F018A40016C4A60016B81
:102520001DE0022303FA06F727424FF0000C4FF09C
:10253000010218D0AF0716D50C68A40605D40C68A4
:1025400024F00A040C6080F8252090F8441001F073
:102550001F018B40016C4B6080F824C0C16A0029C8
:102560001AD0F0BC08470823B340234214D02B07ED
:1025700012D50B6823F00E030B6090F84410036C27
:1025800001F01F0102FA01F15960C26380F82520B1
:1025900080F824C0416BE2E7F0BC704770B50400DE
:1025A0000CD02B4A21681420914209D2294A0A44AE
:1025B000B2FBF0F08000606427480AE0012070BDA3
:1025C000234A52420A44B2FBF0F080006064204883
:1025D00008382064022084F825000A6847F6F07065
:1025E0008243D4E902031843D4E904352B4318434A
:1025F000A3691843E3691843236A1843104308602A
:102600002046FEF7A5FAA0680025B0F5804F00D15E
:102610006560A16C20790860D4E9130141606068AD
:10262000401E032808D82046FEF7B2FA606D056008
:10263000D4E91601416002E06565A565E565E563DD
:10264000012084F8250084F82450002070BD00008B
:1026500008040240F8FFFDBF0000024070B50446C8
:1026600090F82400002501280CD0012084F82400D3
:1026700094F825600020012E06D084F8240002255D
:10268000284670BD022070BD022684F82560E063F4
:102690002068066826F0010606602046FEF78AFAE2
:1026A000206B00282068016802D041F00E0106E08E
:1026B00021F0040101602068016841F00A01016015
:1026C000A06C0168C90303D5016841F48071016001
:1026D000606D18B1016841F4807101602068016883
:1026E00041F001010160CBE770B5044600F0DAFD6E
:1026F0000546601C02D004484068044400F0D2FD46
:10270000401BA042FAD370BDF001002030B590F814
:102710005C30012B07D0022B05D0016E41F0020185
:102720000166012030BD0468A36D4D0701D0DD07AF
:102730001DD011F0380F01D09D0718D511F4E07F9E
:1027400001D05D0713D511F4F05F01D01D070ED540
:1027500011F4604F01D0DD0609D511F4403F01D0DE
:102760009D0604D511F47C0F05D05D0603D4E56DFC
:1027700045F00105E5654C0701D0DC071DD111F0DE
:10278000380F01D09C0718D411F4E07F01D05C070A
:1027900013D411F4F05F01D01C070ED411F4604F74
:1027A00001D0DC0609D411F4403F01D09C0604D4CA
:1027B00011F47C0F06D05B0604D50368DC6D44F091
:1027C0000204DC650B0604D5036853F8DC4F1443A0
:1027D0001C60CB0504D5036853F8E04F14431C601C
:1027E0000068426D0A434265002030BD70B5044662
:1027F00090F85C00022803D0206E40F0080007E04B
:102800002068D0F8C4309B0205D5206E40F40070DB
:102810002066012070BDD0F8C400C0F301452B46EE
:102820002046FEF7F9F921680120A840C1F8CC0044
:10283000A065002070BD10B590F85C20012A07D07B
:10284000022A05D0016E41F002010166012010BD8F
:102850000A687AB10B7B0A690C7A42EA43734A69C7
:10286000406C496842EA847200EBC100C0E9003262
:10287000002010BD0B7A4A690C8A42EA83720B7BF6
:10288000006CDB06496843EA04431A4340F8212000
:10289000EEE730B590F85C50039C012D05D0016E39
:1028A00041F004010166012030BD0901006841EAE0
:1028B000820141EA430150F8802F214322F03F0278
:1028C00011430160002030BD70477047F0B590F8AB
:1028D0005C400025022C03D0016E41F0080160E04D
:1028E0000468402946D0D4F89860360756D0D4F80A
:1028F0009860F60104D5D4F88060F60500D501256E
:10290000D4F89840C4F301246619C46C06EBC605DC
:1029100004EBC504256815F080455560256843D053
:1029200025F06045156025682C4F05F00055956031
:1029300020CC05F00045156134F8045BADB2D561DB
:1029400054F8045CC5F30345D56054F8045C05F401
:102950008015556154F8045C05F40015956154F830
:10296000045CC5F30665156254F8045CED0F55620E
:10297000002522E0D4F8906036070FD0D4F890609C
:10298000F60104D5D4F88060B60500D50125D4F849
:102990009040C4F301246619846CB7E7016E41F4DA
:1029A000807101660120F0BDC5F38A45BAE700BF1A
:1029B00014F805C003F805C06D1CD2F80CC017F858
:1029C0000CC0AC45F4D80068402903D0C0F89C6026
:1029D0000020F0BDC0F89460FAE70000589E00089F
:1029E00070472DE9F05F04460068016D426D01F407
:1029F000E05102EA0108016D426D01F0070102EAAF
:102A00000109016D426D01F0380102EA010A016D10
:102A1000476D01F471010F40016D426D01F46021B9
:102A2000456D02EA010B016DCE43710607D4E943FF
:102A3000490604D4402101652046FFF7D1FFF00587
:102A40000ED4E843C0050BD42068D0F8D820D0F8C5
:102A5000E01011404FF480720265204600F0FBF94F
:102A6000B8F1000005D0216808654146204600F015
:102A7000F4F9B9F1000005D02168086549462046FF
:102A800000F0B2F9BAF1000005D02168086551469E
:102A9000204600F0C7F9B00509D4E843800506D404
:102AA00021684FF400700865204600F0D7F9300621
:102AB0000DD4E84300060AD42068D0F8D420D0F81A
:102AC000DC10114080220265204600F0C5F9B004F8
:102AD00009D4E843800406D421684FF40050086507
:102AE000204600F0B7F9300409D4E843000406D4C6
:102AF00021684FF400400865204600F0AAF97004F0
:102B00000AD4E843400407D421684FF480400865A4
:102B1000206E40F080002066BBF1000005D02168E7
:102B2000086559462046FFF7D0FE27B120680765A3
:102B3000206E38432066206E002802D02046FFF722
:102B4000C3FEBDE8F09F00002DE9F041040006D06F
:102B5000DFF8E88194F85C00002518B107E0012057
:102B6000BDE8F08184F85D50204600F0EFF8206861
:102B7000816921F01001816100F094FB0646032772
:102B800005E000BF00F08EFB801B0A2811D82068EA
:102B900080690007F6D42068816941F001018161F4
:102BA00000F080FB06460BE000F07CFB801B0A284F
:102BB00006D9206E40F00100206684F85C70CEE7F4
:102BC00020688069C007EFD02068816941F0020168
:102BD00081612168414502D1594960680860207CC3
:102BE00001282068816937D041F040018161607C13
:102BF00001282068816932D021F480418161A07C64
:102C00000128206881692DD041F4805181612068BC
:102C10008169A26821F44071114381612068816952
:102C200021F0A40181612068016921F01001016196
:102C3000E068012819D010B302281BD020688169F0
:102C400041F0800181612068016941F0100101615A
:102C5000E06803280ED012E021F04001C6E741F4FD
:102C60008041CBE721F48051D0E72068816941F0B1
:102C7000040103E02068816941F020018161207E28
:102C8000E26940066FF0FF0101EB0222A0F1007043
:102C90001043226AA38A521E10430A0202EB034326
:102CA00018432368D861A068B0F5407F10D1D4E9FB
:102CB0000A0301EB0321401E0843216B131303EBAE
:102CC00001110843A18C02EB014108432168C8604F
:102CD000206850F8C01FE26B11430160194820645E
:102CE000216851F8802FA38E22F4F81242EA0342A1
:102CF0000A60144970316164216851F8802F94F89A
:102D0000383022F0706242EA03620A600D49B03145
:102D1000A1640D49E1640C49D83121650A49F031BB
:102D2000616500F5547120C08842FCD3A565256615
:102D3000012084F85C00002012E7000000640040DD
:102D40000065004000A4004088A5004010B598B080
:102D50000446142111A8FDF7A5FA44216846FDF7A1
:102D6000A1FA1F492068884238D18014009040039E
:102D70000C90684600F094FB08B1FDF73EFF19483F
:102D8000816D41F000718165816D01F000711691D6
:102D9000C16C41F00101C164C06C11A900F00100D7
:102DA00016904FF4C0501190022012900020139002
:102DB000149009201590C00600F03EF9002205216C
:102DC000152000F0D5FA152000F0C4FA00220521E4
:102DD000162000F0CDFA162000F0BCFA18B010BD95
:102DE000006400400010024000B50B4A8BB09042D6
:102DF00010D1C8070ED0094B6A4640210648FFF79C
:102E000065FD002806D106484268002A02D0034921
:102E1000684690470BB000BD800300207407002077
:102E2000CC010020704790F85C10012905D0016E9C
:102E300041F00401016601207047022180F85C1016
:102E400001688A6922F001028A6100210166084650
:102E50007047704770477047704770477047000071
:102E60002DE9F05F054631488946017801290CD0EB
:102E70000126804606704FF47A7B5846FDF772FFB4
:102E800007004FF0000A03D04BE00220BDE8F09F9E
:102E900051464046C8F804A0254C226892050AD540
:102EA0002168490505D5216821F48061216003214D
:102EB00009E0067708E02268520504D5216821F46C
:102EC00080612160022101772868012805D04FF038
:102ED000FF31C9F80010AE681CE06868FDF7FCFE21
:102EE0005846FDF73FFF0746606920F00400606127
:102EF00015E030466968FDF7FDFE5846FDF732FFE4
:102F00000700606920F4FD70606102D0C9F80060BC
:102F100005E0761CD5E902010844B042E9D8FDF786
:102F2000ADFE88F800A03846B0E70000FC010020A4
:102F300000200240054901204A6942F000424A61EE
:102F40004969002900DA0020704700000020024093
:102F50002DE9FF5F254C0646904620789A460128C9
:102F60000BD0012020704FF47A7B5846FDF7FAFE13
:102F700007004FF0000904D02AE0022004B0BDE8A9
:102F8000F09F4846C4F80490194D2968490504D5B6
:102F9000286820F4806028600220207726B1012E66
:102FA00009D0022E07D00CE0424653460198FDF7A7
:102FB000B5FE012612E041460198FDF7BDFE022E46
:102FC0000AD05846FDF7CEFE4FEA0007FDF756FE41
:102FD00084F800903846D1E74FF480265846FDF734
:102FE000C1FE07466869B0436861EFE7FC01002055
:102FF00000200240064900204A69002A07DA054AF3
:103000008A60054A8A604969002900DA0120704710
:103010000020024023016745AB89EFCD70470000D7
:10302000044910B50A68024202D00860FFF7F6FFB3
:1030300010BD0000140401402DE9F04FDFF820928C
:10304000002301260324A9F1040B85B00F2709F101
:10305000040AABF1040EFAE006FA03F52A407CD02C
:1030600091F804C00CF0030CBCF1010F02D0BCF1CC
:10307000020F26D1D0F808C0CDF800C04FEA430CAB
:1030800004FA0CF8CDF810C0DDF800C02CEA080CEA
:10309000CDF800C0D1F80C80DDF810C008FA0CF8AB
:1030A000DDF800C048EA0C08C0F80880D0F804C079
:1030B0002CEA050C0D79C5F300159D4045EA0C0579
:1030C00045600D79ED43AD070ED0C5684FEA430862
:1030D00004FA08FC25EA0C05D1F808C00CFA08FC33
:1030E0004CEA050CC0F80CC00D7905F00305022D63
:1030F00016D1DD0800EB850CCDF808C0DCF8208087
:103100005D074FEAD56C07FA0CF528EA05080D694A
:1031100005FA0CF5DDF808C045EA0805CCF82050A2
:1031200005684FEA430CCDF808C004FA0CFC25EA08
:103130000C0591F804C00CF00308DDF808C008FA8B
:103140000CF848EA0508C0F800804D6815F4403FC7
:103150007CD0444DD5F860C000E077E04CF0010C25
:10316000C5F860C02D6E23F0030C05F00105009535
:103170003D4D65440295AD684FEA837C4FEA1C786B
:1031800007FA08FC25EA0C05B0F1904F06D0DFF8ED
:10319000DCC0604505D14FF0010C20E04FF0000C81
:1031A0001DE0DFF8CCC0604502D14FF0020C16E004
:1031B000DFF8C0C0604502D14FF0030C0FE0DFF82C
:1031C000B8C0604502D14FF0040C08E0DFF8ACC095
:1031D000604502D14FF0050C01E04FF0060C0CFAEF
:1031E00008FC4CEA050C029DC5F808C0D9F800504F
:1031F000CC46D1F8048095435FEAC82800D5154332
:10320000CCF80050DAF80050D446D1F80480954349
:103210005FEA882800D51543CCF80050DBF8005051
:10322000DC46D1F8048095435FEA883800D5154321
:10323000CCF80050DEF80050F446D1F804809543F5
:103240005FEAC83800D51543CCF800505B1C0A680B
:1032500032FA03F57FF400AF05B0BDE8F08F00004F
:103260000804014000100240000001400004004832
:1032700000080048000C00480010004800140048F6
:103280000069084000D001207047426921EA02032A
:103290000A4043EA0241816170470AB18161704787
:1032A000816270470148806870470000F00100208B
:1032B000024881684268114481607047F001002033
:1032C00010B50024032000F073F8032000F008F884
:1032D00008B1012401E000F025F8204610BD0000EF
:1032E00070B50E4E05460024706898B14FF47A719F
:1032F000B1FBF0F00A490968B1FBF0F001F048F8C1
:1033000040B9102D06D200222946501E00F030F898
:10331000356000E00124204670BD0000F00100206F
:103320001C0200200A4882B0016E41F001010166D2
:10333000016E01F001010091816D41F080518165C4
:10334000806D00F08050009002B000F0A1B8000045
:1033500000100240002809DB00F01F02012191400B
:103360004009800000F1E020C0F800117047000023
:10337000F0B40E4B1B680C46C3F30223C3F10705E0
:10338000042D00D90425191D072901D2002300E0CE
:10339000DB1E012606FA05F1491E214099409E4098
:1033A000761E16403143F0BC03F020BD0CED00E06A
:1033B000064900F0070208684FF6FF03184040EA8C
:1033C0000220034A10430860704700000CED00E043
:1033D0000000FA052B492C4B0A6832214A432B493D
:1033E00040B1B0F5007F086829D020F4C06040F4F7
:1033F00080602CE00868C0F34120022804D051F816
:10340000800F20F4807022E0D1F8800020F48070DA
:10341000C1F88000086820F4C06040F400700860C3
:10342000B2FBF3F0401C00E0401E4A69520501D592
:103430000028F9D1486940050AD503207047C0F338
:103440004120022806D051F8800F40F480700860B7
:1034500000207047D1F8800040F48070C1F88000EF
:10346000086820F4C06040F400700860B2FBF3F01C
:10347000401C00E0401E4A695205DBD50028F9D106
:10348000D8E700001C02002040420F0000700040FE
:103490000248816841F480418160704700700040BB
:1034A0002DE9F8430446006800269D4D00035ED5D3
:1034B000A86D0027C00008D4A86D40F08050A86512
:1034C000A86D012700F080500090DFF85892D9F8DD
:1034D000001041F48071C9F80010FFF7E3FE804648
:1034E00006E000BFFFF7DEFEA0EB080002282BD8A5
:1034F000D9F80000C005F5D5D5F8900010F440705B
:1035000014D0216C814211D0D5F89000D5F89010DC
:1035100020F4407041F48031C5F89010D5F8901037
:1035200021F48031C5F89010C5F89000C00711D083
:10353000FFF7B8FE804641F2883907E0FFF7B2FE98
:10354000A0EB0801494501D903260BE0D5F890000E
:103550008007F3D5D5F89000216C20F44070084323
:10356000C5F890001FB1A86D20F08050A8652078A4
:10357000C00707D0D5F88800616820F00300084331
:10358000C5F888002078800707D5D5F88800A1689D
:1035900020F00C000843C5F888002078400707D5C4
:1035A000D5F88800E16820F030000843C5F88800AD
:1035B0002078000707D5D5F88800216920F0C000E1
:1035C0000843C5F888002078800607D5D5F888001C
:1035D000616920F440600843C5F8880020784006FF
:1035E00007D5D5F88800A16920F440500843C5F8F4
:1035F00088002078000607D5D5F88800E16920F416
:1036000040400843C5F888002088C00507D5D5F894
:103610008800216A20F440300843C5F888002088DB
:10362000800507D5D5F88800616A20F4402008435A
:10363000C5F88800208840050FD5D5F88800A16A14
:1036400020F440100843C5F88800A06AB0F5801F38
:1036500003D1E86840F48010E860208800050FD5A9
:10366000D5F88800E16A20F440000843C5F88800D6
:10367000E06AB0F5800F03D1E86840F48010E8609C
:103680002088C0040FD5D5F88800216B20F0407049
:103690000843C5F88800206BB0F1807F03D1E8684B
:1036A00040F48010E86020884FF0006180040ED55F
:1036B000D5F88800626B20F040601043C5F88800A0
:1036C000606B884203D1E86840F48010E86020888D
:1036D00040040ED5D5F88800A26B20F0406010435E
:1036E000C5F88800A06B884203D1E86840F48010D8
:1036F000E860208800040FD5D5F88800E16B20F041
:1037000040500843C5F88800E06BB0F1805F03D1FA
:10371000E86840F48030E8603046BDE8F883000097
:1037200000100240007000402DE9F0470E460500F1
:103730004FF0000725D0DFF89C81D8F8000000F09A
:103740000F00B0420CD2D8F8001021F00F01314325
:10375000C8F80010D8F8000000F00F00B04210D1F7
:1037600029685D4CC80741F2883A52D06868DFF892
:103770006C91032808D00228206826D04005002834
:1037800025DB0120BDE8F08720688001F9D5E068DD
:10379000E068534BC0F30310401CB3FBF0F0E26849
:1037A000C2F306225043E268C2F34162521C520047
:1037B000B0FBF2F0484515D9A06810F0F00F0AD020
:1037C00088070FD5A86830B10CE08003D7E700F078
:1037D000B3F8484506D9A06820F0F00040F080001A
:1037E000A0608027A068696820F003000843A060FB
:1037F000FFF758FD814605E0FFF754FDA0EB0901F6
:1038000051453AD8A068696800F00C00B0EB810F10
:10381000F2D12868810714D5400703D5A06840F489
:10382000E060A0602878000705D5A06820F460500B
:1038300040F4E060A060A068A96820F0F0000843B0
:1038400004E0802F03D1A06820F0F000A060D8F839
:103850000010404601F00F01B14216D9016821F075
:103860000F0131430160FFF71DFD074607E000BF70
:10387000FFF718FDC11B514501D9032082E7D8F895
:10388000000000F00F00B042F2D12878400705D5C3
:10389000A068E96820F4E0600843A0602878000789
:1038A00006D5A068296920F4605040EAC100A060F4
:1038B00000F042F8A1680B4AC1F30311515C01F01A
:1038C0001F01C8400849086008480068BDE8F04783
:1038D000FFF706BD002002400010024000B4C404FF
:1038E0000024F400909E00081C020020F00100203B
:1038F0000548064900688968054AC1F30221515C00
:1039000001F01F01C84070471C0200200010024057
:10391000A09E00080548064900688968054AC1F369
:10392000C221515C01F01F01C84070471C020020F9
:1039300000100240A09E000813498868C0F381026D
:103940001248012A0AD08A68C2F38102022A05D0ED
:103950008A68C2F38102032A01D000207047CA6836
:1039600002F00303CA68C2F30312521CB0FBF2F068
:10397000CA68C968C2F306225043C1F34161491CB9
:103980004900B0FBF1F07047001002400024F40041
:103990002DE9F84304007AD02078F84DC00747D0CD
:1039A000A868E96800F00C0001F003010C2802D0BF
:1039B000082817D001E0032914D06068B0F5803FD3
:1039C00017D0B0F5A02F286817D020F480302860D9
:1039D000286820F4802028606068E0B1FFF762FC6E
:1039E000064614E02868800322D560680028D2D0FB
:1039F0001EE0286840F48030EDE740F48020286025
:103A0000F7E700BFFFF74EFC801B642870D82868DA
:103A10008003F7D50CE0FFF745FC064605E000BF44
:103A2000FFF740FC801B6428F0D828688003F7D497
:103A3000207880074CD5A868E96800F00C0001F0F8
:103A400003010C2802D004280DD001E002290AD07D
:103A5000E068002828682BD040F480702860FFF7C9
:103A600021FC064619E02868400502D5E0680028D8
:103A700091D06868217C20F0FE4040EA01606860D7
:103A8000BF480068FFF72CFC002800D120E072E15D
:103A9000FFF708FC801B0228B8D828684005F7D536
:103AA0006868217C20F0FE4040EA016068600FE019
:103AB00020F480702860FFF7F5FB064605E000BFA4
:103AC000FFF7F0FB801B0228A0D828684005F7D438
:103AD0002078000729D560690028D5F8940013D014
:103AE00040F00100C5F89400FFF7DCFB064606E055
:103AF00090E000BFFFF7D6FB801B022886D8D5F8E0
:103B000094008007F6D510E020F00100C5F894007D
:103B1000FFF7C8FB064604E0FFF7C4FB801B022842
:103B200078D8D5F894008007F6D42078400761D57E
:103B3000A86D0026C00008D4A86D40F08050A8658C
:103B4000A86D012600F0805000908E480168C905DC
:103B500011D40168804641F480710160FFF7A2FB37
:103B6000074604E0FFF79EFBC01B022852D8D8F896
:103B70000000C005F6D5A068012815D00528D5F8A5
:103B8000900016D020F00100C5F89000D5F8900004
:103B900020F00400C5F89000A06841F28838B8B160
:103BA000FFF780FB07460EE0D5F8900040F00100DB
:103BB000F0E740F00400C5F89000F5E7FFF772FB6E
:103BC000C11B414526D8D5F890008007F6D50CE0FA
:103BD000FFF768FB074604E0FFF764FBC11B4145A4
:103BE00018D8D5F890008007F6D41EB1A86D20F043
:103BF0008050A8652078800629D5A0690028D5F8CE
:103C0000980013D040F00100C5F89800FFF74AFB78
:103C1000064606E075E000BFFFF744FB801B022864
:103C20006FD8D5F898008007F6D510E020F0010095
:103C3000C5F89800FFF736FB064604E0FFF732FBB5
:103C4000801B02285DD8D5F898008007F6D4E0697B
:103C5000F0B3A968C1F3810103295DD00228286867
:103C600020F08070286003D0FFF71CFB04464BE077
:103C7000FFF718FB064604E0FFF714FB801B022841
:103C80003FD828688001F7D4F4E908016FF00F02EB
:103C900002EB01110843218A5204490802EB415109
:103CA000A26841EA02210843217D4FF07E42490883
:103CB00002EB41610843217B40EAC160E968324A76
:103CC00011400843E860286840F08070286000E0F8
:103CD0005EE0E86840F08070E860FFF7E3FA0446D1
:103CE00005E000BFFFF7DEFA001B022809D82868AC
:103CF0008001F7D54CE000BFFFF7D4FA001B022883
:103D000002D90320BDE8F88328688001F4D4E8686C
:103D10001E490840E8603BE00128F3D0E868226AC9
:103D200000F00301914226D1616A00F0F00209011E
:103D3000103991421FD1A26A00F4FE41B1EB022F6B
:103D400019D194F82C2000F07841B1EBC26F12D158
:103D5000218E00F4C00249084905A1F500119142E5
:103D600009D194F8341000F0C06049084906A1F167
:103D7000007181420CD00120C4E700000010024015
:103D8000F0010020007000400C809F01FCFFEEFE5F
:103D90000020B7E770B5040009D0606A002540B183
:103DA00025616561A56294F85D0040B10CE00120D9
:103DB00070BD6068B0F5827FF4D0E561F2E784F809
:103DC0005C50204600F05CF8022084F85D0020681A
:103DD000016821F040010160E1684FF4E062914226
:103DE00001D9002001E04FF48050B1F5706F02D08E
:103DF000914200D0A562A188228901F4827102F467
:103E000004421143227C02F002021143227D02F09F
:103E100001021143228B02F400721143227F02F04F
:103E20003802114394F8202002F080021143228DC1
:103E300002F40052114322681160A169042202EACF
:103E4000114194F8242000F4805002F01002114334
:103E500094F8342002F008021143A28902F470623F
:103E600011430143206841602068C16921F4006169
:103E7000C1612566012084F85D00002070BD00004E
:103E80002DE9F04786B0064614216846FCF70AFA89
:103E9000394F3468394802220521394B0025BC428C
:103EA0004CD1046E44F480540466046E04F48054CF
:103EB0000594C46C44F00204C464C06C00F00200B9
:103EC000059038208DE82500CDE903516946184654
:103ED000FFF7B2F82C4C2B484FF4005920600A2011
:103EE000C4E901052020C4E9070904F10C0C80276E
:103EF0004FF480784FF4806A8CE8A0052046FEF7E6
:103F00004DFB08B1FCF779FEB465A6621E4C1D4856
:103F10006034143001C40B2001C41020A4E8A105B2
:103F2000194864E807596030FEF738FB08B1FCF720
:103F300064FE7465A66206B0BDE8F087134EB44215
:103F4000F9D1846D44F480448465846D04F4804424
:103F50000594C46C44F00204C464C06C00F0020018
:103F60000590B0008DE82500CDE90351694618465B
:103F7000FFF762F8DFE70000003001400010024068
:103F8000000400481C000240AC040020003800403F
:103F90002DE9F84F984616468A460446FFF782F9FF
:103FA000814694F85D00012820D1BAF1000F6FD04E
:103FB000002E6DD094F85C00012817D0012784F8FA
:103FC0005C70032084F85D0000252566C4F838A0E5
:103FD000A687E6872564A4F84450A4F846502565D2
:103FE000E564A068B0F5004F03D00CE00220BDE806
:103FF000F88F2068016821F04001016020680168A5
:1040000041F48041016020680168490603D40168D9
:1040100041F040010160E068B0F5E06F606826D9CA
:1040200008B1012E1FD1A06B21680088C86006E08E
:1040300020688168890709D5A16B0988C160A06BD8
:10404000801CA063E08F401EE0870CE0FFF72AF998
:10405000A0EB0901414503D3B8F1FF3F03D04BE08A
:10406000B8F1000F48D0E08F0028E1D139E008B165
:10407000012E33D1E08F0128A06B03D9216800887D
:10408000C86010E021680078087314E0E08725E03C
:1040900043E020688168890713D5E18F0129A16B6E
:1040A00007D90988C160A06B801CA063E08F801EC7
:1040B000ECE709780173A06B401CA063E08F401E01
:1040C000E4E7FFF7EFF8A0EB0901414503D3B8F1AE
:1040D000FF3F03D010E0B8F1000F0DD0E08F0028B3
:1040E000D7D14A464146204601F03BFD08B1202089
:1040F0002066A06830B109E084F85D7084F85C50F7
:10410000032074E72068C1688068009084F85D70BF
:1041100004F85C5F60680028F3D0012067E72DE9B0
:10412000FF5F1D46934604464FF001090E9EFFF7C0
:10413000B9F8074694F85D006168012806D0B1F52A
:10414000827F39D1A168B1BB042835D101980028FC
:104150007CD0BBF1000FFBD0002DF9D094F85C00AF
:10416000012829D04FF0010A84F85CA094F85D0082
:10417000042802D0052084F85D004FF00008C4F840
:104180006080C4F840B0A4F84650A4F844500199A7
:10419000A163E587A587C4F84C80C4F85080E06827
:1041A0004FF4E061884201D8012D09D920684268A6
:1041B00022F4805208E0FFE7022004B0BDE8F09F3F
:1041C0002068426842F480524260206802685206C9
:1041D00003D4026842F040020260E06888426068EE
:1041E00046D908B1012D3BD1A06B01882068C16080
:1041F000A06B801CA063E08F401EE08730E0206849
:10420000816889070FD5E18F69B1B9F1010F0AD132
:10421000A16B0988C160A06B801CA063E08F401E69
:10422000E0874FF0000920688168C90711D0B4F811
:10423000461071B1C068216C0880206C801C20641D
:10424000B4F84600401EA4F8460000E09EE04FF09F
:104250000109FFF727F8C01BB04201D3701C74D1CD
:10426000E08F0028CBD1B4F846000028C7D175E014
:1042700008B1012D6BD1E08F0128A06B08D921680E
:104280000088C860A06B801CA063E08F801E07E0E0
:10429000216800780873A06B401CA063E08F401E6B
:1042A000E08754E02068816889071AD5E18FC1B1A1
:1042B000B9F1010F15D1E18F0129A16B07D9098847
:1042C000C160A06B801CA063E08F801E06E00978AF
:1042D0000173A06B401CA063E08F401EE0874FF08D
:1042E000000920688168C90728D0B4F8461029B3AE
:1042F000B4F84610012914D9C068216C0880206CDC
:10430000801C2064B4F84600801EA4F84600B4F86F
:104310004600012810D82068416841F4805141606E
:104320000AE0007B216C0870206C401C2064B4F80B
:104330004600401EA4F846004FF00109FEF7B2FF08
:10434000C01BB04202D3701C01D012E08EB1E08FCE
:104350000028A7D1B4F846000028A3D13A46314638
:10436000204601F0FEFB50B12020206684F85C80DE
:104370000CE084F85DA084F85C8003201DE784F8DD
:104380005DA084F85C80206E0028F7D0012014E73F
:1043900010B5401EB0F1807F01D3012010BD4FF059
:1043A000E02460610F21601702F020FD0020A06171
:1043B00007202061002010BD704770477047000043
:1043C00030B590F83C20012A42D0012280F83C20F0
:1043D000CA688B6822F440721A434B6822F48062E8
:1043E0001A430B6822F400621A430B6922F48052CC
:1043F0001A434B6922F400521A430B6B22F4804299
:104400001A430B8B22F4702242EA0342CB6922F05A
:1044100080521A430F4D03680024AB4202D00E4D68
:10442000AB4210D10D8D22F4700242EA05520D6AA2
:1044300022F080722A434D6A22F000722A43C96A30
:1044400022F000520A435A6480F83C40002030BDFC
:10445000022030BD002C01400034014070477047FD
:1044600070470000F0B590F83C20012A3AD00125B1
:1044700080F83C50022280F83D2003685A689C680E
:10448000194E1A4FB34201D0BB4204D122F4700C32
:104490004A6842EA0C02DFF858C002EA0C02D1F87E
:1044A00000C04CEA020CC3F804C00268B2420DD04E
:1044B000B2F1804F0AD00F4B9A4207D00E4B9A426E
:1044C00004D0BA4202D00D4B9A4204D1896824F03C
:1044D00080031943916080F83D50002180F83C1022
:1044E0000846F0BD0220F0BD002C01400034014020
:1044F0008FFFFFFD00040040000800400040014025
:10450000704710B5040003D094F83D0010B107E0E7
:10451000012010BD002084F83C00204600F022F865
:10452000022084F83D00211D206801F05BFC012081
:1045300084F8480084F83E0084F83F0084F8400086
:1045400084F8410084F8420084F8430084F8440071
:1045500084F8450084F8460084F8470084F83D005C
:10456000002010BD08B5154A0168154891420ED1CA
:10457000816D41F004018165806D002200F004002E
:10458000009003211E20FEF7F3FE1E2010E00D4ACE
:10459000914211D1816D41F020018165806D002231
:1045A00000F02000009002213720FEF7E1FE3720C6
:1045B000BDE80840FEF7CEBE08BD00000008004080
:1045C000001002400014004070B5044690F83C0012
:1045D0000025012814D0012684F83C60022084F8CC
:1045E0003D0022689068364B184020F47F40906070
:1045F000086870282ED010DC10F00F0F03D021E0D7
:104600004FF0020070BD4FEA2012072A1AD2DFE8ED
:1046100002F0525252524A3840002A4BC21A984273
:1046200049D009DCB0F5805F0DD0B0F5005F1CD03B
:10463000B0F1101F06D13EE0102A3CD0202A3AD01B
:10464000502A38D0012584F83D60002084F83C00D1
:10465000284670BDCB68D1E90121206801F02DFC0E
:104660002068816841F0770109E0CB68D1E9012138
:10467000206801F022FC2068816841F4804181605B
:10468000E1E7CA684968206801F0C2FD502120684E
:1046900006E0CA684968206801F0CBFD6021206807
:1046A00001F016FCCFE7CA684968206801F0B0FD48
:1046B00040212068F4E7226801461046F0E7000038
:1046C00088FFCEFF200010002DE9F0410D460400C8
:1046D00003D094F83D0018B108E00120BDE8F08156
:1046E000002084F83C00204600F042F8022084F8C4
:1046F0003D00206881681D4A11408160211D2068AD
:1047000001F070FB226890689169166A2B68AF69A6
:10471000034340F20330814341EA0721A868EF696F
:1047200008434FF6FC418843E96840EA072001430B
:1047300028692F6A000140EA0730084369686D69FB
:1047400026F0AA0646EA051529439360226890617F
:1047500054F8480B0162012004F81F096075A07528
:10476000E076207720750020B8E70000F8BFFEFF54
:10477000704770B590F83E60044690F83F5090F84E
:10478000443090F84520022021B104290ED0012E9A
:104790001BD114E0012E18D1012B16D184F83E0054
:1047A00084F8440001220021206820E0012D0CD172
:1047B000012A0AD184F83F0084F8450014E0012D55
:1047C00003D1012B01D1012A01D0012070BD84F851
:1047D0003E0084F83F0084F8440084F8450001223C
:1047E0000021206801F05CFB01220421206801F017
:1047F00057FB2068016841F001010160002070BD95
:1048000070472DE9F04104460068C66805694FF01D
:104810000007A90713D5B10711D5F91E01610120C1
:104820002077206880698007204602D0FFF7E8FFE4
:1048300004E000F0E1F8204600F0B6F927776807B9
:1048400016D5700714D521686FF0040008610220A6
:1048500020772068806910F4407F204602D0FFF75F
:10486000CFFF04E000F0C8F8204600F09DF927775C
:10487000280715D5300713D521686FF008000861A7
:10488000042020772068C0698007204602D0FFF707
:10489000B7FF04E000F0B0F8204600F085F9277774
:1048A000E80616D5F00614D521686FF010000861EF
:1048B000082020772068C06910F4407F204602D08D
:1048C000FFF79EFF04E000F097F8204600F06CF937
:1048D0002777E80708D0F00706D021686FF00100BD
:1048E0000861204600F0E0F9280601D4A80408D5A4
:1048F000300606D521686FF4025008612046FFF7A4
:104900005CFDE80508D5300606D521686FF4807097
:1049100008612046FFF750FD680608D5700606D5E9
:1049200021686FF040000861204600F07BFAA8067D
:1049300008D5B00606D521686FF020000861204632
:10494000FFF73CFDE80208D5F00206D521686FF4B8
:10495000801008612046FFF782FDA80208D5B0024A
:1049600006D521686FF4001008612046FFF776FD38
:10497000680208D5700206D521686FF480000861CE
:104980002046FFF76DFD28020AD5300208D52168C0
:104990006FF4000008612046BDE8F041FFF7B0BDAC
:1049A000BDE8F08110B586B0044614216846FBF7D7
:1049B00079FC0F492068884217D10E48C16C41F03C
:1049C0000101C164C06C002100F0010005904FF4AA
:1049D000E06000900220CDE90101039006200490E0
:1049E00069464FF09040FEF727FB06B010BD00006F
:1049F000002C014000100240704770B5044690F84A
:104A00003C0000260D4601280BD0012084F83C0014
:104A10000C2A4AD007DC82B1042A20D0082A06D109
:104A200031E0022070BD102A53D0142A63D0012631
:104A3000002084F83C00304670BD206801F052FA36
:104A40002068816941F0080181612068816921F055
:104A500004018161206881692A69114311E020689D
:104A600001F08EFA2068816941F40061816120685B
:104A7000816921F480618161206881692A6941EA44
:104A800002218161D4E7206801F0C2FA2068C1697F
:104A900041F00801C1612068C16921F00401C161D0
:104AA0002068C1692A69114311E0206801F0F8FA11
:104AB0002068C16941F40061C1612068C16921F4C5
:104AC0008061C1612068C1692A6941EA0221C1612E
:104AD000AEE7206801F02CFB2068016D41F0080171
:104AE00001652068016D21F0040101652068016DF8
:104AF0002A69114311E0206801F052FB2068016D22
:104B000041F4006101652068016D21F48061016557
:104B10002068016D2A6941EA0221016588E710B524
:104B2000040003D094F83D0010B107E0012010BD4F
:104B3000002084F83C00204600F022F8022084F88F
:104B40003D00211D206801F04DF9012084F8480046
:104B500084F83E0084F83F0084F8400084F8410067
:104B600084F8420084F8430084F8440084F8450047
:104B700084F8460084F8470084F83D00002010BD0A
:104B800008B500680649884208D10648016E41F41C
:104B900000610166006E00F40060009008BD000036
:104BA000002C0140001002407047000030B5044660
:104BB000022269B1042912D0082917D00C291CD06F
:104BC000102921D094F84300012824D0012030BDC1
:104BD00094F83E000128F9D184F83E201DE094F8B5
:104BE0003F000128F2D184F83F2016E094F84000FD
:104BF0000128EBD184F840200FE094F8410001280F
:104C0000E4D184F8412008E094F842000128DDD185
:104C100084F8422001E084F843200122206801F05A
:104C20003FF9194B20681949194A984209D088421E
:104C300007D0904205D0174DA84202D0164DA84289
:104C400003D1456C45F400454564206898420CD07A
:104C5000B0F1804F09D0114B984206D0104B9842CA
:104C600003D0884201D0904207D181680D4A11409B
:104C7000062906D0B1F5803F03D0016841F001015B
:104C80000160002030BD0000002C014000340140D4
:104C90000040014000440140004801400004004041
:104CA00000080040070001001FB500685449884211
:104CB00073D1544CD4E91001401C41F10001C4E906
:104CC000100194F84000C00768D194ED200A4E4AC4
:104CD00010EE101A4D4BF7EE001ADFED4D0A4D485D
:104CE000914210DA90ED011A11EE101A99420ADD84
:104CF00090ED042A30EE411A72EE211A31EE201A9C
:104D0000C0ED041A18E010EE101A994210DD90ED73
:104D1000011A11EE101A91420ADA90ED042A30EECF
:104D2000411A72EE611A31EE601AC0ED041A03E006
:104D300090ED011A30EE411A9FED372A80ED021AEC
:104D4000F0EE411A81EE821AF6EE001A90ED032A77
:104D500021EE211A02EE211A84ED231A80ED031AA6
:104D600080ED010A90ED041A01EE200A84ED210A7B
:104D700094F83800032802D0D0B119D01FE0D4ED48
:104D8000270A2649B1EE081A70EEC00A10EE900A02
:104D9000884204DD70EE410A08E030E019E010EED0
:104DA000900A10F17D5F03D970EE010AC4ED270A65
:104DB000D4ED270A1A4803F0BFF984ED260A1848F3
:104DC000D4ED260A94ED230A243803F0B5F984EDD6
:104DD000240A94F84000C043C00710D1D4F88400DE
:104DE0000090D4F88C000190E06D0290606B03900D
:104DF0000848694628300279006802F07FFE1FBD2E
:104E000000140040000000200000F0420000704349
:104E10000000B44338010020A69B443C0000C04081
:104E20000C010020704710B5044690F8840001285A
:104E30001CD0012084F884002420C4F88800206855
:104E40000168026822F00102026041F000504FF058
:104E50000051616621680860204601F0FDF92020BC
:104E6000C4F88800002084F8840010BD022010BD22
:104E70007047704770B5044690F8840001281DD033
:104E8000012084F884002420C4F888002068056884
:104E9000026822F0010202602068826822F06062EB
:104EA0000A438260204601F0D7F92068056020207F
:104EB000C4F88800002084F8840070BD022070BD12
:104EC00070B5044690F8840001281DD0012084F8B4
:104ED00084002420C4F8880020680568026822F055
:104EE000010202602068826822F060420A43826008
:104EF000204601F0B1F9206805602020C4F8880040
:104F0000002084F8840070BD022070BD7047704797
:104F1000704700002DE9F04103680446D86919681C
:104F20009A6840F60F0528424FF000054FF0020640
:104F30000AD187067ED501F0200702F0805C57EA8F
:104F40000C0777D0616F42E1B64FDFF8DCC2174043
:104F500001EA0C0C57EA0C0C6CD05FEAC07C0CD058
:104F60005FEAC15C09D54FF0010CC3F820C0D4F84A
:104F7000903043F00103C4F89030830709D5D3077C
:104F800007D023681E62D4F8903043F00403C4F8BD
:104F9000903043070AD5D30708D02668042333622C
:104FA000D4F8903043F00203C4F8903003070CD5D6
:104FB00001F020033B4308D0266808233362D4F86D
:104FC000903043F00803C4F8903003050BD54B0133
:104FD00009D526684FF400633362D4F8903043F06B
:104FE0002003C4F89030D4F89030002B3DD08006D8
:104FF00009D501F0200002F08051084303D0616F11
:1050000009B120468847D4F890002168896849068C
:1050100002D410F0280F2AD0204601F001FA2068AF
:10502000806840061ED52068083050E8001F21F037
:10503000400100E021E040E80012002AF3D1D4F85A
:10504000800078B179498163D4F88000FDF70DFACA
:1050500000280AD0D4F88000816B00E02046BDE82B
:10506000F04108472046FFF753FFBDE8F081204696
:10507000FFF74EFFC4F89050F7E7D4F86CC0202734
:10508000BCF1010F7ED15FEAC06C7BD55FEAC16CD9
:1050900078D51020186220688068400651D5D4F871
:1050A00080100A6850680004000C3ED0B4F85C30F0
:1050B00083423AD9A4F85E000868006880062CD4C0
:1050C000216851E8000F20F4807041E80002002AB6
:1050D000F6D12068083050E8001F21F0010140E8B7
:1050E0000012002AF5D12068083050E8001F21F096
:1050F000400140E80012002AF5D1C4F88C70E56642
:10510000216851E8000F20F0100041E80002002A59
:10511000F6D1D4F88000FDF773F92667B4F85C0087
:10512000B4F85E10401A81B207E0B4F85C10814216
:105130009BD11068800698D526672046FFF798FE19
:1051400093E7B4F85C00B4F85E10401A81B2B4F88A
:105150005E00002889D0002987D0226852E8000F1D
:1051600020F4907042E80003002BF6D12D4BDB4376
:105170002068083050E8002F1A4040E8002CBCF1AD
:10518000000F00E00EE0F3D1C4F88C70E5666567AF
:10519000206850E8002F22F0100240E80023002B86
:1051A000F6D1C9E7C60209D5560207D54FF48010DB
:1051B00018622046BDE8F041FFF7A9BE03060AD5F4
:1051C00001F0800302F40002134304D0A16F002910
:1051D0007FF444AF49E7420611D54A060FD5204671
:1051E000016851E8002F22F0400241E80023002B23
:1051F000F6D1C0F88870856700F041F935E7020202
:1052000006D54A0004D52046BDE8F041FFF77EBE32
:10521000C00195D5002993DA2046BDE8F041FFF79B
:1052200028BE0000010000102001000411640008E5
:1052300010B5040003D0D4F8880010B107E00120B5
:1052400010BD002084F88400204600F027F82420B8
:10525000C4F888002068016821F001010160A06A9B
:1052600010B1204601F01AF8204601F06BFB01282E
:10527000E6D02068416821F490414160206881684F
:1052800021F02A0181602068016841F0010101607C
:105290002046BDE8104001F065B8000010B598B098
:1052A0000446142111A8FAF7FDFF44216846FAF7D5
:1052B000F9FF1A49206888422ED101200024CDE947
:1052C00000046846FEF7ECF808B1FBF796FC1448BA
:1052D000016E41F480410166016E01F48041169136
:1052E000C16C41F00201C164C06C11A900F0020060
:1052F0001690C02011900220CDE912040720CDE9BC
:1053000014400848FDF798FE00220F212520FEF7E3
:105310002FF82520FEF71EF818B010BD0038014008
:10532000001002400004004830B4D0F88C30202B2C
:1053300002D0022030BC7047A9B1A2B10023C366DD
:105340000A4C0368A3420BD05B681B0208D50468B3
:1053500054E8003F43F0806344E80035002DF6D167
:1053600030BC01F029BC0120E4E7000000800040CF
:1053700070B500681249884221D1124C0026124DA6
:105380002178632918D2022907D9681810F8010C6E
:105390000D2802D1685C0A2809D0491C21702078A8
:1053A0002918BDE8704001220848FFF7BDBF064834
:1053B00003F0A4FC2670F2E726702946F1E770BDE1
:1053C0000038014034010020E4060020500600208F
:1053D0002DE9F8430446D0F88800984616460D4655
:1053E000202802D00220BDE8F883A5B19EB100209C
:1053F000C4F890002120C4F888001834FDF752FF4B
:10540000A6878146E68754F8100C2027183CB0F593
:10541000805F02D003E00120E5E7206910B12E464D
:10542000002510E000260EE08021204601F04CFC13
:10543000C0B9DEB116F8010B21688862B4F85600D5
:10544000401EA4F85600B4F856004B464FF0000238
:10545000CDF800800028E7D14FF04001204601F050
:1054600033FC40B1C4F888700320BCE735F8020B68
:10547000C0F30800E0E7C4F888700020B3E7704785
:10548000FEE700EB8100006E00F0F840704700EB93
:105490008100006E00F0F84070478068C0F3C000E3
:1054A00070478068C0F3C00070478068C0F3800018
:1054B00070478068C0F380007047C06810F4406F88
:1054C00001D00020704701207047042303EAD15324
:1054D00010B518444369C1F3045107248C40A34319
:1054E0008A401343436110BD042303EAD15310B52E
:1054F00018444369C1F3045107248C40A3438A40F4
:105500001343436110BD00EB8100016E21F00041A7
:1055100011430166704700EB8100016E21F00041EC
:10552000114301667047000030B593B000240F941A
:1055300010943C2168461194FAF7B4FE2F484FF0BE
:10554000A041012501604FF44031C0E90114C4605D
:1055500008210461C0E9055104774577056280F8A8
:10556000244080F83840C46380F84040FCF714FCC5
:1055700008B1FBF742FB0FA920480F94FCF754F841
:1055800008B1FBF73AFB1E4800900920CDE9010560
:105590007F2003900420CDE9040403200890A0207C
:1055A0000A908DF8244080208DF825400B908DF8CE
:1055B00026408DF8304069461048FBF705FC08B1DD
:1055C000FBF71BFB0F48009040F20F10019069465B
:1055D0000A48FBF7F9FB08B1FBF70FFB0A480090FC
:1055E00040F21520019069460448FBF7EDFB0028C6
:1055F00001D0FBF702FB13B030BD000024020020F5
:1056000002003004040060080800900C10B588B057
:1056100020216846FAF746FE264825490024016005
:105620004FF44031C0E90114C46001210822046133
:10563000C0E90512047741770322026280F8244012
:10564000C462046380F838100903C16380F84040E5
:10565000FCF7A2FB08B1FBF7D0FA17480090062030
:105660000190072002907F2003900420CDE90404DC
:1056700069461048FCF744F808B1FBF7BEFA0F483A
:1056800000900C20019069460A48FCF739F808B1EF
:10569000FBF7B3FA0A4800901220019069460548CA
:1056A000FCF72EF8002801D0FBF7A7FA08B010BDD0
:1056B00000010050900200202000F0140010603221
:1056C0000040C03A0A4810B5084901600021017144
:1056D00041714161816103210162FCF743FE0028B1
:1056E00003D0BDE81040FBF788BA10BD003002407F
:1056F0005C030020154808B5816C41F00401816409
:10570000816C01F004010091816C41F00101816420
:10571000806C002200F0010000900F210B20FDF7AB
:1057200027FE0B20FDF716FE002201210C20FDF7BD
:105730001FFE0C20FDF70EFE002201210D20FDF7BB
:1057400017FEBDE808400D20FDF704BE0010024022
:1057500010B5144812494FF4407201600021C0E9AD
:1057600001120122C1600274417481741123022468
:10577000C0E905340C24C46107240462C0E909327D
:105780000323C0E90B320822C0E90D21C163FDF7F4
:10579000DBF9002803D0BDE81040FBF72EBA10BD9E
:1057A00000640040800300202DE9F04387B01421FD
:1057B0006846FAF777FD3C48C16C41F02001C164AE
:1057C000C16C01F020010591C16C41F00101C1647F
:1057D000C16C01F001010591C16C41F00401C1648B
:1057E000C16C01F004010591C16C41F00201C1647A
:1057F000C06C4FF0904800F002000590002248F283
:1058000008014046FDF749FD284F4FF4A0560022FD
:1058100031463846FDF741FDDFF8949001224FF400
:1058200040614846FDF739FD08200125CDE9000516
:1058300000240220CDE9024069464046FDF7FCFB0A
:1058400060208DE8310069464046FDF7F5FB009683
:10585000CDE90154694638460394FDF7EDFB40203D
:105860008DE8310069464846FDF7E6FBE803009005
:10587000CDE90154694640460394FDF7DDFBA802DB
:105880000090CDE90154694648460394FDF7D4FBE6
:10589000E802CDE9000569464846CDE90245FDF735
:1058A000CBFB07B0BDE8F0830010024000040048C5
:1058B00000080048124810B5104901604FF4827189
:1058C000416000214FF47062C0E902120122C0E978
:1058D0000412520282611822C0E9072107224162A4
:1058E000C0E90A1201634163FEF754FA002803D0AD
:1058F000BDE81040FBF781B910BD00000030014049
:10590000E4030020124810B5104901604FF4827181
:10591000416000214FF47062C0E902120122C0E927
:105920000412520282613822C0E907210722416233
:10593000C0E90A1201634163FEF72CFA002803D084
:10594000BDE81040FBF759B910BD00000038004019
:105950004804002010B598B00024149415941C211C
:1059600068461694FAF79EFC342107A8FAF79AFCC9
:1059700032483149C0E900142021816040F6FF71AE
:10598000C0E9031444618461FFF7C9F808B1FBF76B
:1059900034F94FF4E000CDE9144014A927481694D7
:1059A000FEF760FD08B1FBF728F96020CDE900049F
:1059B0000220CDE9020404940594002269461F48A0
:1059C0000694FFF71AF808B1FBF717F904226946A5
:1059D0001A48FFF712F808B1FBF70FF908226946D9
:1059E0001648FFF70AF808B1FBF707F90C226946D9
:1059F00012480294FFF701F808B1FBF7FEF807948C
:105A0000089409944FF400500A94CDE90B400D948A
:105A100000030E94CDE90F401194129407A9074892
:105A20001394FEF7CDFC08B1FBF7E7F80348FEF747
:105A3000B9FF18B010BD0000002C01406C0500201B
:105A400010B588B000241748009401940294039480
:105A500004940594124906940160A921C0E9011437
:105A60004FF6FF71C0E903148461FEF74AFD08B1E7
:105A7000FBF7C3F84FF48050009069460948FEF7E1
:105A8000A3FD08B1FBF7B9F8049404A905480694EE
:105A9000FEF7E8FC002801D0FBF7AFF808B010BD16
:105AA00000080040B80500203EB500240F480094CF
:105AB00001940D4902940160A921C0E9011440F24A
:105AC000E7318461C160FEF71CFD08B1FBF795F872
:105AD0000094694605480294FEF7C4FC002801D0F2
:105AE000FBF78BF83EBD00000014004004060020C8
:105AF000184810B5164901601749416000218160BE
:105B00000C22C160C0E904128161C161016241627D
:105B10008162FFF78DFB08B1FBF76FF800210D489C
:105B2000FFF7CEF908B1FBF768F84FF000610948BC
:105B3000FFF7A0F908B1FBF760F80648FFF773F923
:105B4000002803D0BDE81040FBF757B810BD000097
:105B5000003801405006002080841E00FEE7FEE76A
:105B60007047F8B515460E460B46009204460022D3
:105B70004FF4C05100F01AF888B933460022802152
:105B80002046009500F082F848B9334600224FF4D1
:105B9000C0612046009500F009F8002804D0206E6E
:105BA00040F0200020660320F8BD00002DE9FE4FE4
:105BB0004FF0000A984617460E4604460C9D8DF895
:105BC00004A0FDF76FFB411BA8EB0105FDF76AFB85
:105BD000814620684FF4C06B0C3002902A48006860
:105BE000C0EBC00000EB8000000D6843009043E074
:105BF0005E4506D12FB9029800788DF804009DF813
:105C00000400B8F1FF3F37D0FDF74CFBA0EB0900D3
:105C1000A84203D215B1009858B32BE02068416820
:105C200021F0E00141606068B0F5827F0BD1A0688F
:105C3000B0F5004F02D0B0F5806F04D12068016844
:105C400021F040010160A06AB0F5005F09D1206831
:105C5000016821F4005101602068016841F400519D
:105C60000160012084F85D0084F85CA00320BDE899
:105C7000FE8F0025401E0090206880683040B842AA
:105C8000B6D10020F3E700001C0200202DE9F84304
:105C90001E46914688460446089DFDF703FB401BBF
:105CA000351AFDF7FFFA074625480068C0F3CB30E8
:105CB000684338E0701C37D0FDF7F4FAC01BA842E7
:105CC00003D215B1009860B32CE02068416821F040
:105CD000E00141606068B0F5827F0BD1A068B0F54B
:105CE000004F02D0B0F5806F04D12068016821F028
:105CF00040010160A06AB0F5005F09D12068016829
:105D000021F4005101602068016841F400510160F4
:105D1000012084F85D00002084F85C000320BDE8C9
:105D2000F8830025401E00902068816838EA010051
:105D300004D000214945BDD10020F0E70121F9E759
:105D40001C0200207047FDF7B3BA10B594B038219B
:105D50006846FAF7A7FA14210EA8FAF7A3FA00206A
:105D6000FDF738FB0120009000040324042101907A
:105D7000CDE9084102205521CDE90A1007900C9089
:105D80000D906846FDF704FE08B172B6FEE70F20DD
:105D9000CDE90E04002010901190129004210EA85D
:105DA000FDF7C2FC002801D072B6FEE714B010BDAA
:105DB0000548016841F47001016003494FF000603B
:105DC000803908607047000088ED00E00148FEF768
:105DD00018BD0000B80500200148FEF712BD000004
:105DE000040600202DE9F0430268264B264D274E7D
:105DF000274C4FF08049984207D0484505D0A8422B
:105E000003D0B04201D0A04203D122F070074A680B
:105E10003A43204FDFF880C0DFF8808098420DD0F1
:105E200048450BD0A84209D0B04207D0A04205D0C7
:105E3000B84203D0604501D0404503D122F44075FB
:105E4000CA682A434D6922F080022A4302608A68A8
:105E5000C2620A688262984207D0A04205D0B84266
:105E600003D0604501D0404501D10969016301219A
:105E700041610169C90703D0016921F00101016194
:105E8000BDE8F083002C0140000400400008004001
:105E900000340140004001400044014000480140FE
:105EA00010B501F01F030121046A99408C4304627C
:105EB000016A9A401143016210BD10B5846842EA3C
:105EC000032224F47F440A432243826010BD000071
:105ED0008268034B1A400A4342F007018160704711
:105EE0008FFFCFFF2DE9F043056A026A22F001021D
:105EF0000262436882691C4C25F0020522400C684E
:105F000022F0030214438A68194E2A43174D194F91
:105F1000DFF864C0DFF86490A84207D0B04205D033
:105F2000B84203D0604501D0484506D122F00808A8
:105F3000CA6842EA080222F00402A84207D0B0422E
:105F400005D0B84203D0604501D0484505D14D6920
:105F500023F440731D438B692B434360846149687C
:105F600041630262BDE8F0838FFFFEFF002C014019
:105F7000003401400040014000440140004801401D
:105F8000F0B5056A026A22F0100202624268836973
:105F9000194C1B4E23400C6823F4407343EA04243D
:105FA00025F020038D6843EA0513144DA84201D063
:105FB000B04206D1CF6823F0800343EA071323F0F1
:105FC0004003A8420AD0B04208D00E4DA84205D0E6
:105FD0000D4DA84202D00D4DA84207D14D6922F4C3
:105FE000406242EA85028D6942EA8502426084612C
:105FF000496881630362F0BDFF8FFFFE002C014002
:10600000003401400040014000440140004801408C
:10601000F0B5056A026A22F4807202624368C269BE
:10602000194C1B4E22400C6822F00302144325F445
:1060300000728D6842EA0522144DA84201D0B04298
:1060400006D1CF6822F4006242EA072222F480627D
:10605000A8420AD0B04208D00E4DA84205D00E4D3D
:10606000A84202D00D4DA84207D14D6923F44053F8
:1060700043EA05138D6943EA05134360C461496827
:10608000C1630262F0BD00008FFFFEFF002C0140E3
:1060900000340140004001400044014000480140FC
:1060A000F0B5056A026A22F4805202624268C3694E
:1060B000194C1B4E23400C6823F4407343EA04241C
:1060C00025F400538D6843EA0533144DA84201D0EE
:1060D000B04206D1CF6823F4004343EA073323F4E8
:1060E0008043A8420AD0B04208D00E4DA84205D045
:1060F0000D4DA84202D00D4DA84207D14D6922F4A2
:10610000404242EA85128D6942EA85124260C461CA
:10611000496801640362F0BDFF8FFFFE002C01405F
:10612000003401400040014000440140004801406B
:1061300030B5056A026A22F4803202624268036D59
:10614000114C23400C681C4325F400330D8943EAAD
:1061500005430E4DA8420BD00D4DA84208D00D4D61
:10616000A84205D00C4DA84202D00C4DA84204D143
:106170004D6922F4803242EA052242600465496892
:106180008164036230BD00008FFFFEFF002C0140E0
:1061900000340140004001400044014000480140FB
:1061A00030B5046A026A22F4801202624268036D0A
:1061B000114D24F400142B400D6843EA05230D898A
:1061C00044EA05540D4DA8420BD00D4DA84208D00D
:1061D0000C4DA84205D00C4DA84202D00B4DA84250
:1061E00004D14D6922F4802242EA8522426003658F
:1061F0004968C164046230BDFF8FFFFE002C01407E
:10620000003401400040014000440140004801408A
:1062100010B5036A046A24F001040462846924F05E
:10622000F00444EA021423F00A020A438461026281
:1062300010BD10B5036A046A24F010040462846976
:1062400023F0A00324F4704444EA023243EA01112B
:106250008261016210BD000030B5416EB9B10268C3
:1062600091689268C1F342610B4B520F9C5CE50050
:1062700003F10804A25CB5FBF2F2A0F86A205A5CB4
:10628000615CD200B2FBF1F1A0F8681030BD0121D1
:10629000A0F86A10F8E70000809E000890F8281027
:1062A000090706D501684A68836B22F400421A4345
:1062B0004A6090F82810C90706D001684A68C36A86
:1062C00022F400321A434A6090F82810890706D554
:1062D00001684A68036B22F480321A434A6090F8DE
:1062E0002810490706D501684A68436B22F48022CA
:1062F0001A434A6090F82810C90606D501688A68D2
:10630000C36B22F480521A438A6090F828108906E1
:1063100006D501688A68036C22F400521A438A6029
:1063200090F82810490611D501684A68436C22F498
:1063300080121A434A60416CB1F5801F06D1016892
:106340004A68836C22F4C0021A434A6090F828100D
:10635000090606D501684A68C06C22F4002202438F
:106360004A6070472DE9F84300260446C0F8906063
:10637000FCF798FF8046206800684FF02005000772
:106380006FF07E4713D5434600222904204600972C
:1063900000F09AFC58B1216851E8000F20F080000D
:1063A00041E80002002AF6D1C4F8885021E02068B4
:1063B0000068400722D5434600224FF48001204662
:1063C000009700F081FCC8B1216851E8000F20F46B
:1063D000907041E80002002AF6D12068083050E8A9
:1063E000001F21F0010140E80012002AF5D1C4F895
:1063F0008C5084F884600320BDE8F883C4F888508A
:10640000C4F88C5044F86C6F666026760020F3E781
:1064100010B5806A0021A0F85E10FEF779FD10BD6E
:1064200010B5026852E8001F21F4907142E8001391
:10643000002BF6D10E4B0268083252E8001F1940BB
:1064400042E80014002CF6D1C16E012908D1016880
:1064500051E8002F22F0100241E80023002BF6D172
:106460002021C0F88C100021C166416710BD0000DA
:10647000FEFFFFEF10B5B0F86020D0F88C30016857
:10648000222B04D0886940F00800886110BD496A59
:10649000836D11401980816D891C8165B0F85E1093
:1064A000491EA0F85E10B0F85E100029EED1026817
:1064B00052E8001F21F4907142E80013002BF6D13E
:1064C0000168083151E8002F22F0010241E8002361
:1064D000002BF5D12021C0F88C1000214167016705
:1064E000154B02689A420BD05268120208D5036815
:1064F00053E8002F22F0806243E80024002CF6D1FC
:10650000C26E012A02D0FEF733FF10BDC1660268D9
:1065100052E8001F21F0100142E80013002BF6D1D1
:106520000168CA69D243D20601D410220A62B0F8C7
:106530005C10FEF79DFC10BD008000402DE9F04787
:106540000446B0F860600068C569D0F800A0D0F8D3
:106550000890D4F88C10222905D0816941F00801F7
:106560008161BDE8F087B4F868704FF0000844E03E
:106570002068406AA16D30400880A06D801CA06535
:10658000B4F85E00401EA4F85E002068C569690783
:1065900030D0E9070AD05FEACA5107D5012101626C
:1065A000D4F8900040F00100C4F89000A8070BD583
:1065B0005FEAC97008D0216802200862D4F8900010
:1065C00040F00400C4F8900068070BD55FEAC9707A
:1065D00008D0216804200862D4F8900040F002003E
:1065E000C4F89000D4F8900020B12046FEF790FC4B
:1065F000C4F89080B4F85E0000B30FB1A806B7D419
:10660000B4F85E000028ACD0B4F868108142A8D974
:106610002068083050E8001F21F0805140E8001247
:10662000002AF5D12A486067206850E8001F41F031
:10663000200140E80012002AF6D192E7216851E8D3
:10664000000F20F4807041E80002002AF6D1214AB0
:106650002068083050E8001F114040E80013002B6C
:10666000F6D12020C4F88C00C4F874804046C4F8E9
:106670007080194A216891420BD04968090208D5F7
:10668000226852E8001F21F0806142E80013002BCD
:10669000F6D1E16E012903D02046FEF769FEAFE78F
:1066A000E066216851E8000F20F0100041E8000288
:1066B000002AF6D12068C169C943C90601D4102156
:1066C0000162B4F85C102046FEF7D2FB98E70000A8
:1066D00075640008FEFFFFEF0080004010B5B0F8C1
:1066E0006020D0F88C300168222B04D0886940F0FB
:1066F0000800886110BD496A1140826D1170816D7A
:10670000491C8165B0F85E10491EA0F85E10B0F813
:106710005E100029EED1016851E8002F22F490723A
:1067200041E80023002BF6D10168083151E8002F21
:1067300022F0010241E80023002BF5D12021C0F80E
:106740008C10002141670167154B02689A420BD0FB
:106750005268120208D5036853E8002F22F08062C5
:1067600043E80024002CF6D1C26E012A02D0FEF7C5
:10677000FFFD10BDC166026852E8001F21F0100144
:1067800042E80013002BF6D10168CA69D243D20651
:1067900001D410220A62B0F85C10FEF769FB10BD4C
:1067A000008000402DE9F0470446B0F860600068C2
:1067B000C569D0F800A0D0F80890D4F88C10222930
:1067C00005D0816941F008018161BDE8F087B4F826
:1067D00068704FF0000844E02068406AA16D3040C6
:1067E0000870A06D401CA065B4F85E00401EA4F8BF
:1067F0005E002068C569690730D0E9070AD05FEA02
:10680000CA5107D501210162D4F8900040F001007F
:10681000C4F89000A8070BD55FEAC97008D02168BA
:1068200002200862D4F8900040F00400C4F8900000
:1068300068070BD55FEAC97008D021680420086298
:10684000D4F8900040F00200C4F89000D4F8900012
:1068500020B12046FEF75CFBC4F89080B4F85E00DF
:1068600000B30FB1A806B7D4B4F85E000028ACD0CE
:10687000B4F868108142A8D92068083050E8001F99
:1068800021F0805140E80012002AF5D12A486067C3
:10689000216851E8000F40F0200041E80002002A82
:1068A000F6D192E7216851E8000F20F4807041E8AA
:1068B0000002002AF6D1214A2068083050E8001F63
:1068C000114040E80013002BF6D12020C4F88C00C2
:1068D000C4F874804046C4F87080194A2168914217
:1068E0000BD04968090208D5226852E8001F21F040
:1068F000806142E80013002BF6D1E16E012903D03C
:106900002046FEF735FDAFE7E066206850E8001F3F
:1069100021F0100140E80012002AF6D12068C16978
:10692000C943C90601D410210162B4F85C102046A5
:10693000FEF79EFA98E70000DD660008FEFFFFEF15
:10694000008000402DE9F04104460168806822691A
:10695000E3691043626900251A431043DFF82CC233
:106960000A688B4B1A4002430A6020684168E2685B
:1069700021F44051114341602168A069614501D073
:10698000226A10438A68834B1A4002438A60206857
:10699000C16A626A21F00F011143C1627E49236816
:1069A0007E488B420DD1D0F8880010F0030006D04D
:1069B000012855D0022842D003283FD152E00120BF
:1069C0003DE077498B420BD1D0F8880010F00C00E5
:1069D00035D0042833D0082840D00C282ED141E0EF
:1069E00070498B420BD1D0F8880010F0300026D0CF
:1069F000102835D0202831D030281FD132E06A4904
:106A00008B420BD1D0F8880010F0C00017D040287E
:106A100026D0802822D0C02810D123E063450DD194
:106A2000D0F8880010F4406009D0B0F5806F17D01E
:106A3000B0F5006F12D0B0F5406F13D010205B4955
:106A40005B4F00264FF4004263453BD160B1022802
:106A500013D004280BD0082872D10DE00220EEE7F5
:106A60000420ECE70820EAE7FCF742FF01E0FCF72E
:106A700063FF010001D17CE01146606A37F8102005
:106A80006768B1FBF2F007EB4703834270D8B0EBC5
:106A9000073F6DD8002308461946F9F7B9FB0902EC
:106AA00041EA106102027808101871413A46002349
:106AB000F9F7AEFB3F4AA0F54071914258D82168E2
:106AC000C86056E0E3694FF6EF7893422CD109286D
:106AD0004ED2DFE800F00508114D0D4D4D4D100070
:106AE000FCF706FF01E0FCF715FF010004D140E0D0
:106AF000FCF722FFF9E71146606A37F81000B1FB96
:106B0000F0F04100606801EB5001B1FBF0F0A0F142
:106B1000100141452CD84FF6F0710140C0F34200FE
:106B200001432068C16024E0092821D2DFE800F099
:106B3000050912200E2020201100FCF7D9FE02E0EA
:106B400016E0FCF7E7FE010004D112E0FCF7F4FECA
:106B5000F9E71146606A37F81000B1FBF0F16068A0
:106B600001EB5001B1FBF0F0A0F1100141450AD951
:106B700001250120A4F86A0024F8680F2846E66081
:106B80002661BDE8F08180B299E7000000800040F6
:106B9000F369FFCFFFF4FF110038014000100240FD
:106BA0000044004000480040004C00400024F40035
:106BB000689E0008FFFC0F0070B58165A0F85C209E
:106BC000A0F85E200023436781684FF48056FF24BD
:106BD000B14204D10169F9B940F2FF1122E07F25E9
:106BE000C1B1B1F1805F1AD0A0F86030C0F8903028
:106BF0002221C0F88C100168083151E8003F43F0B1
:106C0000010341E80034002CF5D1416EB1F1005F81
:106C10000ED031E0016941B9A0F86040E6E70169B2
:106C200019B13F21A0F86010E0E7A0F86050DDE75F
:106C3000B0F8681091421FD88168B14201D1016952
:106C4000B9B11D494167016941B1026852E8001FAD
:106C500041F4807142E80013002BF6D1016808313D
:106C600051E8002F42F0805241E80023002BF5D17B
:106C700020E012494167F1E78168B14201D1016921
:106C800069B10F494167016959B1026852E8001FB3
:106C900041F4907142E80013002BF6D10AE0094953
:106CA0004167026852E8001F41F0200142E80013EA
:106CB000002BF6D1002070BDA56700083D650008D7
:106CC000DD660008756400082DE9F047994617460F
:106CD0000D4604464FF00008089E33E0701C31D08A
:106CE000FCF7E0FAA0EB0900B04218D8BEB120686A
:106CF0000168490726D5802D24D0402D22D0C169B6
:106D0000C94309070DD4082505622046FFF788FB13
:106D1000C4F8905084F884800120BDE8F0870320F7
:106D2000FBE7C069C04300050CD421684FF4006044
:106D300008622046FFF774FB2020C4F8900084F816
:106D40008480ECE72068C06935EA000004D00020A8
:106D5000B842C3D00020E0E70120F9E70148FEF780
:106D6000D9B8000050060020FEE700000149086085
:106D700070470000C801002070B50C46072900D9F3
:106D8000072401460025A2000E48F9F772FA05EB28
:106D90008400C1B20B4800224254491CC9B242547B
:106DA000491CC9B280224254491CC9B27F224254B4
:106DB000491CCAB2014604486B1E0068BDE8704019
:106DC000FEF706BB54070020C80100200FB4054B96
:106DD00010B503A9044A029800F078F910BC5DF8D8
:106DE00014FB0000297D0008200200200907090E7D
:106DF000002804DB00F1E02080F80014704700F068
:106E00000F0000F1E02080F8141D70470000000022
:106E10002DE9F0412DED020B9FED3D0B2DED028B89
:106E20009FED3D8BDDE90254C4F30A50A0F2FF361A
:106E3000142E37DA002E18DA53EC102B9DED020BCE
:106E400051EC100BF9F739FA53EC182BF9F706FD52
:106E500057D2002CA4BF0024254652DA24F000406B
:106E6000284318BF2E4C4CD01AE02E4820FA06F7C3
:106E700004EA070028431FD053EC102B9DED020BB2
:106E800051EC100BF9F719FA53EC182BF9F7E6FC53
:106E900037D2002C03DA4FF48010F0400444BC4396
:106EA00000252EE0332E07DCA6F114004FF0FF3151
:106EB00021FA00F73D4206D19DED020BBDEC028B9D
:106EC00002B0BDE8F08153EC102B9DED020B51ECAC
:106ED000100BF9F796FA53EC182BF9F7BFFC10D208
:106EE000002C0DDA142E08BF641C09D0C6F1340042
:106EF000012101FA00F02844A84238BF641C05466D
:106F0000BD43CDE902549DED020BD7E70000000020
:106F10009C7500883CE4377E000000000000000003
:106F20000000F0BFFFFF0F0002E008C8121F08C1F9
:106F3000002AFAD170477047002001E001C1121FFA
:106F4000002AFBD1704700002DE9FF5F82B00021CD
:106F5000DDE90430020DDDF840B0034318D044F6FB
:106F60001050A2F2FF3242431514119801281FD08D
:106F7000A5EB0B00401C5FEA000A4FF000064E4FE5
:106F8000DFF83891B046504615D5CAF1000413E039
:106F9000119801244AA3012801D16FEA0B0102983C
:106FA000119AC0E90031C0E9024206B0BDE8F09F85
:106FB000CBF10000DFE704460021404A491842EBCC
:106FC0000450CDE9001012E0E00707D032463B46FE
:106FD00040464946F9F718FA8046894632463B460C
:106FE00010461946F9F710FA06460F466410002CB1
:106FF000EAD1DDE90401DDE90023BAF1000F06DA88
:10700000F9F702FA42464B46F9F7FEF905E0F9F7BF
:107010006DFA42464B46F9F769FA04460E460022DD
:10702000284BF9F71BFC03D84FF0FF30014607E06F
:107030000022254B20463146F9F73FF9F9F7F5FBD9
:10704000102409E0002C0ADB0A220023F9F7E0F8FB
:10705000039B30321A55641E50EA0102F2D1641CBF
:10706000039AC4F111031444119A012A03D0012296
:1070700008430DD10AE0084304D000204FF0110B63
:10708000119072E7A3EB0B056D1E0DE05B4504DD6F
:107090004FF0000205F1010504E003DA4FF00002B1
:1070A000A5F10105002AECD002981199C0E902313E
:1070B000C0E9004579E70000000014400000F03FFF
:1070C000300000000000F0430000E03F2DE9FF4FDA
:1070D00095B09B468946064600250FE2252877D1C4
:1070E00000242746F84A0121059400E0044316F8DD
:1070F000013F203B01FA03F01042F7D130782A28F3
:1071000011D06FF02F033078A0F13002092A16D881
:10711000059A44F0020402EB820203EB420210449F
:10712000761C0590EFE759F8042B0592002A03DA44
:10713000504244F40054059044F00204761C307828
:107140002E2816D116F8010F44F004042A280DD079
:107150006FF02F023078A0F13003092B09D807EB2C
:10716000870302EB4303C718761CF3E759F8047B47
:10717000761C30786C280FD006DC4C2817D0682895
:107180000DD06A2814D104E0742810D07A280FD1C9
:107190000DE044F400140AE044F4801401E044F4E7
:1071A00040147278824202D104F58014761C761C59
:1071B000307866280BD013DC582877D009DC0028FB
:1071C00075D04528F6D04628F4D047281AD19DE13D
:1071D00018E0632835D0642879D0652812D195E16C
:1071E000702873D008DC6728F1D069286FD06E282A
:1071F0000DD06F2806D1B5E073282CD0752875D036
:10720000782874D05A46179990476D1C75E1C4F3DD
:107210000250022809D003280DD0D9F80010042804
:107220000DD00D6009F1040967E1D9F80010EA17E3
:10723000C1E90052F6E7D9F800100D80F2E70D70B1
:10724000F0E719F8041B8DF8001000208DF80100FC
:10725000EA46012003E059F804AB4FF0FF30610724
:107260004FF0000102D40DE008F101018846B94257
:107270000FDA8045F8DB1AF808100029F4D108E08D
:1072800008F1010188468142FADB1AF8081000294A
:10729000F6D105985B46A0EB080721463846179AB9
:1072A00000F094FA284400EB080507E04DE029E1DE
:1072B0000DE01AF8010B5A4617999047B8F10108EA
:1072C000F7D25B4621463846179A13E142E00A227C
:1072D0000092C4F302524FF0000A022A08D059F873
:1072E00004CB032A4FEAEC710AD00DE029E02AE032
:1072F00009F1070121F00702F2E802C1914609E015
:107300000FFA8CFC4FEAEC71042A03D14FFA8CFC83
:107310004FEAEC71002907DA0A460021DCF1000C83
:1073200061EB02012D2202E0220504D52B228DF80B
:107330000420012203E0E20701D02022F7E7904673
:1073400059E00A2102E010220DE010214FF0000A5E
:1073500000910BE010224FF0000A44F004040827CB
:10736000009203E008224FF0000A0092C4F3025298
:10737000022A05D059F804CB0021032A08D009E0DD
:1073800009F1070121F00702F2E802C1914605E088
:107390001FFA8CFC042A01D10CF0FF0C4FF00008FE
:1073A000220728D5702806D0009B83F0100353EAEB
:1073B0000A0305D00EE040228DF80420012208E0E7
:1073C0005CEA010206D030228DF804208DF8050019
:1073D00002229046009B83F0080353EA0A030AD175
:1073E0005CEA010201D1620705D530228DF8042044
:1073F0004FF001087F1E582804D034A003900EA837
:1074000002900DE036A0F9E753466046009AF8F77F
:10741000FFFE84460398825C0298401E0290027030
:107420005CEA0100F0D1029806A9081A00F1200ACE
:10743000600702D524F4803400E00127574502DDBF
:10744000A7EB0A0000E0002000EB0A01009005987D
:107450004144401A0590E00306D45B462146179A42
:10746000059800F0B3F90544002706E001A85A4644
:10747000C05D179990476D1C7F1C4745F6DBE00304
:107480000CD55B462146179A059800F09FF90544F4
:1074900004E030205A46179990476D1C0099481E09
:1074A00000900029F5DC08E0029802995A4600781D
:1074B000491C0291179990476D1CBAF10001AAF17D
:1074C000010AF1DC65E100000928010030313233A6
:1074D0003435363738396162636465660000000010
:1074E00030313233343536373839414243444546FA
:1074F0000000000000F058F90544761C30780028A0
:107500007FF4ECAD19B02846BDE8F08F620700D4D7
:10751000062709F1070222F0070CFCE80223E146E6
:1075200003F000485FEA080C02D00FF2702C0DE067
:107530005FEA045C02D50FF2682C07E05FEAC47CC6
:1075400002D00FF2602C01E0AFF2700C4FF0FF3868
:1075500023F00043CDF850C065280CD006DC452848
:1075600009D046281DD047283DD13DE0662818D0D7
:1075700067287ED138E00021112F01DB112000E0C7
:10758000781CCDE9000106A90EA8FFF7DDFCDDE9B6
:107590000F010E9A03910021009207F1010A049154
:1075A0004DE04FF000400097CDE9011006A90EA86C
:1075B000FFF7CAFCDDE90F0203920E9B119900222E
:1075C000DDF80CA00093049211B9791C00EB010ABC
:1075D000B7EB0A0004D4C0F1FF3007F1010A0490B0
:1075E000AAEB0700019044E0012F00DA01270021F7
:1075F000112F01DD112000E03846CDE9000106A978
:107600000EA8FFF7A1FCDDE90F010E9A03910021FE
:1076100004910092BA4621070CD40399514500DA2F
:107620008A46BAF1010F05DD009AAAF10101515C09
:10763000302908D0B84202DA10F1040F06DA01212D
:10764000CDE9011015E0AAF10101E9E7002805DC08
:10765000049901440491AAEB000102E0411C514548
:1076600000DD8A460499401A401C01904FF000400A
:107670000290200704D40198504501DBCDF8048026
:1076800000208DF84F0002980DF14F07B0F1004F28
:1076900025D02B200E9002984FF0020800280CDA1B
:1076A000404202902D200E9007E00A210298F8F740
:1076B000E1FF3031029007F8011DB8F10001A8F197
:1076C0000108F2DC02980028EFD1791E0E980870AC
:1076D000307800F0200040F0450007F8020D12A8B5
:1076E000C01B00F107081498007800B1012000EBDE
:1076F0000A01019801EBE07105984144401A401ECF
:107700000590E00306D45B462146179A059800F0E1
:107710005DF805441498007818B15A4617999047B7
:107720006D1CE00324D55B462146179A059800F0AE
:107730004DF805441CE00498002807DBDDE903014F
:10774000884203DD0098405C179901E017993020CA
:107750005A469047049805F10105401C0490019891
:10776000401E019004D12E205A46179990476D1C57
:10777000BAF10001AAF1010ADDDC05E017F8010BFE
:107780005A46179990476D1CB8F10001A8F10108FD
:10779000F4DC5B462146179A0598ABE62D00000005
:1077A0002B000000200000002DE9F04104460025D8
:1077B0001E461746880404D405E039462020B04709
:1077C0006D1C641EF9D52846BDE8F0812DE9F04115
:1077D000044600251E469046C80301D5302700E028
:1077E0002027880404D505E041463846B0476D1C83
:1077F000641EF9D52846BDE8F081000010B500F000
:1078000009F8BDE810403C210148FCF7B2BF000078
:10781000F0070020F0B593B0242105A8F8F742FD49
:1078200000240E940F94142168461094F8F73AFD42
:107830003748C16C41F00401C164C16C01F004011E
:107840001191C16C41F00201C164C16C01F00201EF
:107850001191C16C41F00101C164C16C01F00101E1
:107860001191816D41F002018165806D022500F06A
:107870000200119010200126CDE90005254FCDE929
:107880000246694638460495FBF7D6FB2020CDE931
:107890000005CDE90246694638460495FBF7CCFB66
:1078A000082000904FF48810CDE90104694638465D
:1078B000FBF7C2FB19481849C0E900144FF47A617C
:1078C000C0E902410461846105A9032081E85100F7
:1078D000CDE90A46089409940C9410480D94FCF7DD
:1078E000F3FE08B1F9F789F90E940EA90B4810942C
:1078F000FCF7B8FD08B1F9F780F900220121172043
:10790000FBF736FD1720FBF725FD13B0F0BD000097
:10791000001002400004004800040040F00700206E
:107920001F480068406A9FED200A81B21D4800EEA2
:10793000901A90F82920BAB1B8EE601ADFED1B0A50
:1079400041EE400AC0ED200A90ED0C0AD0ED200A6D
:1079500090ED0B1A174A10EE810A80ED220A9FED76
:10796000140AD0ED220A0BE0F8EE600A20EE800A3D
:1079700080ED200AE8E700BF70EEC00AC0ED220AE1
:1079800010EE901A9142F7DC04E000BF70EE800A1E
:10799000C0ED220AF5EEC00AF1EE10FAF6D37047F8
:1079A000F007002000000020EC51B83D0000B44377
:1079B000DB0FC940DB0FC9400322011D0148FAF764
:1079C000ABBC00005C03002070B52A4DB0F5007F11
:1079D0000BD0B0F5407F07D195F83800002803D1CF
:1079E00091ED000A85ED270A70BD08780C46C0F3BA
:1079F0004110032800D068872078C0F3C100032815
:107A000001D000F0E3F82068C143490703D000F03B
:107A1000070085F8380020880126C0F3C11003282C
:107A200000D0AE872088C0F343200F2807D085F808
:107A30002A001048243000F013FC30B1EE8695F88F
:107A4000380028B1012808D00BE00020E886F6E7CE
:107A500094ED010A85ED270A03E094ED020A85ED15
:107A6000260A94ED030A85ED460A94ED040A85ED95
:107A70003D0A70BD0000002030B50546007987B092
:107A80000E2817D80220039001200490687908B1CD
:107A90004FF08040019040F2FF70002406900EE00D
:107AA0000294286801A950F8240005900C48FAF7C0
:107AB000C2FE10B1012007B030BD641CE4B22879C9
:107AC000A042EDD80020034602220090114604484F
:107AD000FAF7DFFE08B1F9F790F80020EBE70000B5
:107AE00080030020006840F60F721040FFF76CBF63
:107AF0000149486070470000CC01002030B589B0D2
:107B00000024CDE900040D461046029400F018F957
:107B1000CDE903044FF4801005904000CDE9060440
:107B20002A46694602480894FAF760FE09B030BD5B
:107B30008003002090ED000ADFED070A80ED030AC4
:107B40009FED061A20EE200AD0ED010A00EE810A10
:107B500080ED040A704700003ACD133F3ACD933FC1
:107B600070B50122940221461648FBF796FB32209D
:107B7000FAF7BAFDA121022000F05AF80220FAF724
:107B8000B3FD4FF4AA71052000F052F80220FAF775
:107B9000ABFD40F24321062000F04AF83220FAF70C
:107BA000A3FD094D012221462846FBF776FB012063
:107BB000FAF79AFD21462846BDE870400022FBF7FF
:107BC0006CBB00000008004800040048044B4FF460
:107BD000806108B1012200E000221846FBF75DBB7E
:107BE000000800483EB54FF4004141EAC0200E4D68
:107BF000ADF80800CC10002221462846FBF74DFBCB
:107C00004FF0FF300090012301AA02A90748FCF7BA
:107C100086FA012221462846FBF73FFBBDF8040007
:107C2000C0F30A003EBD00000004004848040020E4
:107C300073B50D4DBDF804104FF4805441EAC020D7
:107C4000ADF80400002221462846FBF726FB4FF042
:107C5000FF33012201A90548FCF79AF901222146C8
:107C60002846FBF71AFB7CBD0004004848040020AE
:107C700070B5294C294894ED220A00F0FBFB04F171
:107C800048000646FFF756FF244D3046D5ED000A62
:107C900095ED010A00F03FFAD4ED240A94ED170A9D
:107CA00004F1A00000F048FA84ED190AD4ED250A89
:107CB00094ED180A04F1C40000F03EFA84ED1A0AAB
:107CC000D5ED000A95ED010A304600F0B7FA3046CE
:107CD00000F022FBD4ED1D0A9FED110A114960EE60
:107CE000800AFCEEE00A10EE900A0860D4ED1E0A4D
:107CF000091D60EE800AFCEEE00A10EE900A0860B2
:107D0000D4ED1F0A091D20EE800ABCEEC00A10EE59
:107D1000100A086070BD000000000020AC010020C7
:107D200000008045342C014013B54FF6FF7301224B
:107D300069460248FDF74CFB00981CBD5006002028
:107D4000082801D8082070470C2801D8092070475E
:107D5000102801D80A207047142801D80B2070473A
:107D6000182801D80C207047202801D80D20704712
:107D7000302801D80E2070470F20704710B500F052
:107D80005DF82B482B4A90F82A304FF6FF70911F70
:107D900013B1012B06D008E048F221031380508074
:107DA000022001E0108001200870234803685C680D
:107DB00044F001045C6003685C6844F002045C60A9
:107DC000836D1B681C6824F001041C60836D0978B6
:107DD0001B685960846D036824680C33A360846D4C
:107DE000144B24681B1FE360836D1B681C6844F000
:107DF00001041C60836D1B681C6844F002041C6055
:107E0000436D1B681C6824F001041C60436D1B68F3
:107E10005960436D01681B680C319960416D0968B8
:107E2000CA600068016841F04001016010BD0000B7
:107E300000000020EA0100203C0800202DE9F04F5E
:107E400087B014216846F8F72DFA5848C16C41F004
:107E50000401C164C16C01F004010591C16C41F0E1
:107E60000201C164C16C01F002010591C16C41F0D5
:107E70000101C164C16C01F001010591016E41F481
:107E800080510166006E022600F48050059010209B
:107E9000CDE9000602AA002401250527DFF810819C
:107EA00082E8B00069464046FBF7C6F802AA4FF0E8
:107EB000200B82E8B000CDE900B669464046FBF7EA
:107EC000BBF80820CDE9000602AA694682E8B000A6
:107ED0004046FBF7B1F8E802CDE9000569463548B0
:107EE000CDE90245FBF7A8F8344E334806F10C0102
:107EF00030604FF48270C6E901044FF4706081E88D
:107F000031006802B0611820C6E9070407207462D6
:107F1000C6E90A40346330467463FBF73BFF08B19F
:107F2000F8F76BFE254D264864354FF4005728605E
:107F30000A20C5E9010405F10C014FF080084FF457
:107F400080794FF4806A2F6281E8100F2846FAF793
:107F500025FB08B1F8F751FEB565AE62174D18481C
:107F6000C435143001C50B2001C51020A5E8110748
:107F7000124865E80747C430FAF710FB08B1F8F774
:107F80003CFE7565002201210C20AE62FBF7F0F982
:107F90000C20FBF7DFF9002201210D20FBF7E8F9A7
:107FA0000D20FBF7D7F907B0BDE8F08F00100240B5
:107FB0000004004800080048003001403C08002050
:107FC0001C00024010B500224FF400610A48FBF784
:107FD00064F90A48416D09680A6822F001020A60E2
:107FE000426D0749126809785160406D0068016868
:107FF00041F00101016010BD000800483C0800206C
:10800000E401002010B50122D1022B48FBF745F90D
:108010002A482B4A9FED2B0A90F82A1011B101290A
:108020002AD019E051889FED281A4904090C0162F1
:1080300090F8292028E000BF00EE101AB8EE400AA0
:1080400020EE010A06E000BF00EE901AF8EE600A8A
:1080500000EEC10A80ED200A90ED0C0AD0ED200A56
:1080600090ED0B1A1A4A10EE810A80ED220A9FED5C
:10807000170AD0ED220A0FE011889FED161AC1F3FE
:108080000D01016290F82920002ADDD1D4E700BF5C
:1080900070EEC00AC0ED220A10EE901A9142F7DC91
:1080A00004E000BF70EE800AC0ED220AF5EEC00ABF
:1080B000F1EE10FAF6D310BD0008004800000020D1
:1080C000E60100200000B4430000B43BDB0FC940D0
:1080D000DB0FC940D002B43CFBF7F2F8FDF735FEE8
:1080E000FDF762FBFDF706FBFDF71EFAFDF78EFAC2
:1080F000FDF72EFBFDF7DEFBFDF704FCFDF72AFC88
:10810000FDF7F6FCFDF79CFCFDF7DCFAFDF7CCFC77
:1081100000F012FAFEE790ED031AD0ED041A21EEFA
:10812000202A61EEA00A01EE802A41EE400A80ED8D
:10813000062AC0ED050A704770EEC00A90ED000AED
:1081400060EE201A90ED050A30EE200A80ED050A57
:1081500090ED061AB4EEC10AF1EE10FA01DDB0EEB0
:10816000410AB1EE411A80ED050AB4EEC10AF1EE02
:1081700010FA01D2B0EE410A80ED050A90ED021A24
:10818000154921EE000A81ED020A90ED041A31EE44
:10819000800A30EEC11A81ED031AC0ED040AD0ED59
:1081A000010A60EE810AC1ED040A30EE200A80ED7A
:1081B000070AD0ED030AB4EEE00AF1EE10FA06DC8D
:1081C000F1EE600AB4EEE00AF1EE10FA01D2C0ED71
:1081D000070A90ED070A7047B4010020DFED061A88
:1081E000C0ED041AC0ED051A80ED000AC0ED020AC8
:1081F00080ED011A70470000000000007FB50446C2
:108200000D4B04216A46002053F8205042F82050BC
:10821000401C8842F8D31046FFF7CEFB00998142FC
:1082200002D0052004B070BD01AD084695E80E00EF
:1082300084E80F000020F5E700F0010890ED081A2F
:10824000D0ED071A21EE202A01EEC02A21EE000A05
:1082500001EEA00A80ED092A80ED0A0A70470000AD
:108260002DE9F04385B00446FFF7A6FB0026206009
:108270003E214FF001080096CDE90181194DCDF85E
:108280000C80FAF7B7FE04A96846FAF7E9FD40B199
:1082900015A0FEF79BFDFAF74DFE022005B0BDE8E4
:1082A000F083FAF747FEB14626460227FAF7A2FE08
:1082B0005FF0000406EBC40005EBC401D0E9002325
:1082C0000020FAF745FE30B10DA0FEF77FFDFAF76A
:1082D00031FE4046E2E7641CBC42EBD3FAF72AFECB
:1082E0004846DBE700F00108666C61736820657240
:1082F000617365206661696C2121210D0A0000000F
:10830000666C617368207772697465206661696C58
:108310002121210D0A00000090ED0A0AD0ED090A82
:10832000B5EEC00AF1EE10FA01DD002300E00423EF
:108330009FED4E1AF0EE401A40EEC11AF5EEC01A4B
:10834000F1EE10FA01DD002200E00222F0EE401A08
:1083500040EE811AF5EEC01AF1EE10FA01D80121B3
:1083600000E000211A441144072911D2DFE801F08E
:108370000406080A0A0C0E0002210AE0032108E0A4
:10838000012106E0002104E0042102E0062100E0D2
:1083900005219FED371AB6EE002A062960EE811AF4
:1083A00020EE021A1FD2DFE801F01E03060B12179F
:1083B00071EEC10A1BE071EE810A31EE610A16E02E
:1083C000F0EE400AB1EE610A30EE410A0FE071EEC4
:1083D000610AB1EE400A0AE0B1EE610A70EE410AAC
:1083E00031EEC10A03E0F1EE400A31EE810AB7EE48
:1083F000001A062931EE601A31EE401A21EE021AF7
:1084000030EE812A70EE800A70EE012A70EE811A39
:1084100021D2DFE801F02003080F161BB0EE410A5D
:10842000F0EE420A03E0B0EE620AF0EE410AB0EE6E
:10843000611A16E0F0EE410AB0EE610AB0EE421A9F
:108440000FE0B0EE610AF0EE620A0AE0B0EE420A16
:10845000F0EE610A05E0B0EE410AF0EE610AB0EE1E
:10846000621A2C3080EC030A704700002DB2DD3F09
:108470002DB25D3FDFED2E0A20EE200ABCEEC00AD1
:1084800010EE101A89B2B1F5805F01D340F6FF718A
:10849000284A11F440631CD0B3F5806F26D0B3F5A1
:1084A000006F32D0B3F5406F12D1C1F5805302EBAB
:1084B000830302EB810193ED000AA1F54051B1EE77
:1084C000400A80ED010A91ED000A00BF80ED000A2C
:1084D000704702EB8103A2EB810193ED000A01F5E5
:1084E000406180ED010A91EDFF0AEFE7C1F50063FD
:1084F00002EB830302EB810193ED000AA1F58051A9
:1085000080ED010A91ED010A0FE002EB8103A3F572
:108510000053C1F5406193ED000A02EB8101B1EE19
:10852000400A80ED010A91ED000AB1EE400ACDE764
:1085300083F92244548E00082DED0A8B84B040212B
:108540004FF09040FAF79CFE012801D0012000E096
:108550000020FE4D4000202168704FF09040FAF757
:108560008FFE012801D0012100E00021687801433D
:10857000F64869706830026842EA011202604038C9
:10858000026842EA01120260F1A0FEF71FFCF44803
:10859000FEF7ECFBF3480390FFF730FEF14C243C70
:1085A000002861D0A08E40F00100A086EEA0FEF76A
:1085B0000DFCE6482030FFF75FFAF048FFF798FA25
:1085C00000220121EE48FAF7A1F808B1F8F715FBEF
:1085D000EB48FAF728FC08B1F8F70FFB00F02CFC89
:1085E000E8480068016841F0400101609FEDE68ABB
:1085F000B0EE481ADFEDE58AF0EE680A9FEDE49AE6
:10860000D848B0EE490AA030FFF7E8FDD548B0EEF3
:10861000481AF0EE680AB0EE490A7C30FFF7DEFD3A
:10862000B0EE481ADFEDDB0A9FEDDB0ACD48C4301F
:10863000FFF7D4FDCB48B3EE0E1AF0EE080AB3EE06
:10864000090AE830FFF7CAFDFFF78AFA0120FFF7B1
:10865000BDFA00F025FB94F82A0000282AD0012852
:1086600028D0022829D02AE0CCA0FEF7AFFB14F8CE
:10867000281FCEA0FEF7AAFB6178D0A0FEF7A6FBCC
:10868000A178D2A0FEF7A2FB6068F7F7C4FF41EC27
:10869000100BD3A053EC102BFEF798FBA068283CDE
:1086A000F7F7B9FF41EC100BD1A053EC102BFEF7FC
:1086B0008DFB7EE7FFF762FB01E0FFF79FF8D048F4
:1086C000F9F70EFDCE48F8F719FF0322CD49CE4841
:1086D000F9F780FDCC48F9F703FDFF2020779FEDE7
:1086E000CBCADFF868A20AF1600ADFEDC98AC94F78
:1086F000DFF810B307F1040808F104099FEDC69BE9
:108700009FEDC7AB9FEDC8BB04F148000026019068
:10871000A08E90BBE08E80BB608F012801D0B0B1ED
:108720003AE0D4E91030D5E91612591A90412CD309
:1087300008214FF09040FAF7A8FDD4E910024FF459
:108740009671411842F10000C5E916101DE0D4E908
:108750001002A96D411AB1F5487F0FD24FF4C870CD
:10876000B1FBF0F200FB1210C82815D309E0082174
:108770004FF09040FAF791FD07E00DE0B1F5E16FA1
:1087800001D20122F3E7C5E91602207F30B10128AA
:1087900007D002280AD112E00022E8E70721019859
:1087A00002E0704807214030FEF7E6FAA08F072864
:1087B0007DD2DFE800F0110812607DC8C70069486B
:1087C00004215C30F0E70220A087D4E910010A30D0
:1087D00041F10001C5E914010AE2D4E91030D5E9FC
:1087E0001412591A9041F7D384F829609FED900A2A
:1087F000564884ED1A0A84ED198A84ED0C8AB0EE8D
:10880000480A85ED070A6030FFF734FEDAED000A0A
:108810009AED010A0198FFF711FD0198FFF77CFD21
:1088200094ED1D0A20EE280ABCEEC00A10EE100AD4
:1088300080B2386094ED1E0A20EE280ABCEEC00A11
:1088400010EE100A81B2C8F8001094ED1F0A20EE55
:10885000280ABCEEC00A10EE100A81B2C9F8001056
:10886000D4E910104FF47A72891840F10000C5E97C
:108870001410032092E1D4E91030D5E91412591AEA
:108880009041A9D3D4F884006861F7F7C4FE41ECA5
:10889000100B68A053EC102BFEF798FAD4E91001E6
:1088A0000A3041F10001C5E91401042076E19EE19E
:1088B000D4E91010D5E914238A1A70EB03028BD384
:1088C00095ED070A5F4B30EE0C0A10EE102A9A4223
:1088D0003ADA1E4885ED070A6030FFF7CBFDDAED86
:1088E000000A9AED010A0198FFF7A8FC0198FFF72A
:1088F00013FD94ED1D0A20EE280ABCEEC00A10EE0E
:10890000100A80B2386094ED1E0A20EE280ABCEEF0
:10891000C00A10EE100A81B2C8F8001094ED1F0AC8
:1089200020EE280ABCEEC00A10EE100A81B2C9F887
:108930000010D4E910020A21411842F10000C5E9F3
:10894000141055E12CE188E07EE0000038010020A1
:108950006465766963652069643A25640D0A0000E0
:10896000500600202400002073797320636667207E
:108970006572726F722121210D0A0000E57A0008EC
:10898000800300204804002000000000A69BC43B98
:10899000295C8F3D6F12833A4260E53B7379732007
:1089A00063666720726561643A0D0A006D6F746FCB
:1089B000725F70703A25640D0A0000006D6F746F6D
:1089C000725F6469723A25640D0A000073656E7304
:1089D00065725F747970653A25640D0A00000000C5
:1089E0007261645F6761696E3A25660D0A00000076
:1089F0007261645F6F66667365743A25660D0A007E
:108A0000240200204807002090020020CDCCCC3D5D
:108A100000008045342C01406666666666660A4042
:108A2000000000000000303F3333333333331F4046
:108A30000AD7A33D706F736974696F6E313A25660A
:108A40000D0A0000DB0FC9404FF4FA72891840F19B
:108A50000000C5E914100520A0E0D4E91030D5E9E4
:108A60001412591A90417CD3D4F88400F7F7D3FD3F
:108A700041EC100B75A053EC102BFEF7A7F994ED09
:108A8000210AD5ED050A30EE600A85ED060AB5EE3D
:108A9000C00AF1EE10FA07D2B1EE400A85ED060ADF
:108AA000012084F8290001E084F8296095ED070A87
:108AB000DFED6A0A60EE200A9FED691A80EE810AF6
:108AC00095ED061AC0EE010AB6EE000A30EE800AF5
:108AD00010EE100AF7F79FFD41EC100BFEF798F926
:108AE00051EC100BF7F77EFDC0B200EE100A0290B9
:108AF00084F82800B8EE400ADFED5A0A20EE200A7A
:108B000084ED0B0A10EE100AF7F785FD41EC100B0F
:108B100094F82900009053EC102B53A00299FEF713
:108B200055F9B0EE480A85ED070A5A48FFF7A2FC4E
:108B3000DAED000A9AED010A0198FFF77FFB019830
:108B4000FFF7EAFB94ED1D0A20EE280ABCEEC00AEE
:108B500010EE100A80B2386094ED1E0A20EE280A4A
:108B600000E045E0BCEEC00A10EE100A81B2C8F881
:108B7000001094ED1F0A20EE280ABCEEC00A10EE89
:108B8000100A81B2C9F80010D4E910104FF47A72BB
:108B9000891840F10000C5E914100620A08727E0DD
:108BA000D4E91010D5E91423891A984120D3D4F8B8
:108BB00088002063F7F72FFD41EC100B53EC102BCE
:108BC000AFF2D410FEF702F984ED1A8A84ED198A07
:108BD0003E60C8F80060C9F80060A08E20F0010077
:108BE000A0860398FFF73CFBF8B10120E086A6873A
:108BF000BBF8000080B2F7F7E8FC53EC192BF7F74D
:108C000003FC53EC1A2BF7F7FFFB53EC1B2BF7F786
:108C1000FBFBF7F713FDA0F182412061B1F5600F76
:108C200005D9A08E40F0020009E0E686DFE71A4988
:108C300008441A49884203D2A08E20F00200A08680
:108C4000A08E00283FF464AD668761E5706F73699C
:108C500074696F6E323A25660D0A00000000B44355
:108C6000DB0FC94035FA8E3C6D6F746F725F7070A8
:108C70003A25642C207261645F6761696E3A2566EB
:108C80002C206D6F746F725F6469723A25640D0AEF
:108C90000000000098010020FFFFF7BEFFFFD30097
:108CA000144810B50168CA6842F00102CA60006841
:108CB000016841F0010101600F4C00202168486308
:108CC000216888632168C863216802200864002144
:108CD0002046FBF76BFF04212046FBF767FF0821C6
:108CE0002046FBF763FF2068016841F00101016045
:108CF00010BD0000040600206C05002070B502784D
:108D0000022100260125414C0B2A0ED2DFE802F099
:108D1000060D0B0E11210D23325165004078BDE880
:108D20007040FEF753BF4078608770BD4078207771
:108D300070BD0020FEF756FF014635A0FEF746F84D
:108D40000120FEF74FFFBDE87040014634A0FEF75A
:108D50003DB8A58770BD2D494078DFED340A91ED0F
:108D6000190A20B130EE600A84ED190A70BD30EEA8
:108D7000200AF9E7254942789FED2D1ADFED2D1ADB
:108D800091F83800D1ED270A91ED260A2AB158B1A1
:108D900030EE610A84ED260A70BD10B130EE210A72
:108DA000F8E730EE810A01E030EEC10A84ED270ACF
:108DB00070BD407840B1012809D002280AD00328AC
:108DC000F6D184F8380070BD84F8386070BD84F83E
:108DD000385070BD84F8381070BD407820B101283B
:108DE00005D0022806D007E084F82A6004E084F861
:108DF0002A5001E084F82A1004482430FFF730FAA2
:108E000008B1E58670BDE68670BD00000000002058
:108E10004661756C743A307825580D0A00000000E0
:108E20005647533A307825580D0A00000AD7233C9C
:108E3000000048420000C842044903480122097862
:108E400001440348FCF770BAE40600203401002016
:108E50005006002000000000D40FC93AC70F493B5C
:108E6000C1CB963B890FC93B3053FB3B59CB163CDA
:108E700002ED2F3C900E493C0030623C4B517B3C54
:108E800038398A3CB6C9963C1C5AA33C69EAAF3CC7
:108E90009B7ABC3CB00AC93CA69AD53C7B2AE23CF2
:108EA0002DBAEE3CB949FB3C90EC033D2F340A3D12
:108EB000B87B103D2CC3163D880A1D3DCC51233D87
:108EC000F698293D07E02F3DFC26363DD56D3C3D0B
:108ED00091B4423D2FFB483DAF414F3D0E88553D7B
:108EE0004CCE5B3D6814623D625A683D38A06E3DD1
:108EF000E9E5743D742B7B3D6CB8803D0ADB833D16
:108F000094FD863D0A208A3D6A428D3DB464903DC1
:108F1000E786933D05A9963D0ACB993DF9EC9C3D2A
:108F2000CF0EA03D8C30A33D3052A63DBA73A93D73
:108F30002B95AC3D80B6AF3DBBD7B23DDAF8B53D21
:108F4000DD19B93DC33ABC3D8D5BBF3D397CC23DA7
:108F5000C69CC53D36BDC83D86DDCB3DB7FDCE3D8B
:108F6000C81DD23DB93DD53D895DD83D377DDB3D3E
:108F7000C49CDE3D2EBCE13D76DBE43D9AFAE73D44
:108F80009A19EB3D7638EE3D2E57F13DC075F43D14
:108F90002C94F73D73B2FA3D92D0FD3D4577003EEB
:108FA0002E06023E0295033EC223053E6EB2063EE9
:108FB0000541083E86CF093EF35D0B3E4AEC0C3E70
:108FC0008B7A0E3EB708103ECC96113ECA24133E53
:108FD000B2B2143E8340163E3DCE173EE05B193ED2
:108FE0006BE91A3EDE761C3E38041E3E7B911F3E26
:108FF000A51E213EB6AB223EAD38243E8CC5253E93
:109000005152273EFCDE283E8D6B2A3E04F82B3E53
:1090100061842D3EA2102F3EC99C303ED428323EA2
:10902000C4B4333E9840353E50CC363EEC57383EC3
:109030006CE3393ECF6E3B3E15FA3C3E3E853E3EEC
:109040004910403E379B413E0726433EB9B0443E5F
:109050004D3B463EC2C5473E1850493E4FDA4A3E58
:1090600067644C3E60EE4D3E38784F3EF101513E14
:10907000898B523E0115543E589E553E8F27573ED0
:10908000A4B0583E97395A3E6AC25B3E1A4B5D3EC9
:10909000A8D35E3E135C603E5CE4613E836C633E3D
:1090A00086F4643E667C663E2204683EBA8B693E66
:1090B0002F136B3E7F9A6C3EAB216E3EB2A86F3E83
:1090C000942F713E51B6723EE83C743E5AC3753ED1
:1090D000A649773ECCCF783ECB557A3EA4DB7B3E8B
:1090E00056617D3EE1E67E3E2236803EC0F8803EFF
:1090F0004ABB813EC07D823E2240833E7002843E58
:10910000AAC4843ECE86853EDF48863EDA0A873E84
:10911000C1CC873E938E883E5050893EF8118A3EDE
:109120008AD38A3E07958B3E6E568C3EC0178D3E85
:10913000FCD88D3E229A8E3E325B8F3E2C1C903E98
:1091400010DD903EDD9D913E945E923E351F933E34
:10915000BFDF933E31A0943E8D60953ED220963E77
:1091600000E1963E17A1973E1661983EFE20993E7B
:10917000CEE0993E86A09A3E27609B3EAF1F9C3E64
:1091800020DF9C3E789E9D3EB85D9E3EDF1C9F3E4C
:10919000EEDB9F3EE59AA03EC259A13E8718A23E53
:1091A00033D7A23EC595A33E3F54A43E9F12A53E91
:1091B000E5D0A53E128FA63E254DA73E1F0BA83E2B
:1091C000FEC8A83EC486A93E6F44AA3E0102AB3E3B
:1091D00077BFAB3ED47CAC3E153AAD3E3CF7AD3EDE
:1091E00049B4AE3E3A71AF3E102EB03ECBEAB03E2F
:1091F0006BA7B13EEF63B23E5820B33EA5DCB33E51
:10920000D698B43EEC54B53EE610B63EC3CCB63E5E
:109210008488B73E2A44B83EB2FFB83E1EBBB93E72
:109220006E76BA3EA031BB3EB6ECBB3EAFA7BC3EAD
:109230008B62BD3E4A1DBE3EEBD7BE3E6F92BF3E27
:10924000D54CC03E1E07C13E48C1C13E557BC23E03
:109250004435C33E15EFC33EC8A8C43E5C62C53E5C
:10926000D21BC63E29D5C63E628EC73E7C47C83E4D
:109270007700C93E53B9C93E1072CA3EAE2ACB3EF2
:109280002CE3CB3E8B9BCC3ECA53CD3EEA0BCE3E6D
:10929000EAC3CE3ECA7BCF3E8A33D03E2AEBD03ED5
:1092A000AAA2D13E095AD23E4811D33E67C8D33E46
:1092B000647FD43E4136D53EFDECD53E99A3D63EE3
:1092C000135AD73E6B10D83EA3C6D83EB97CD93EC0
:1092D000AD32DA3E80E8DA3E319EDB3EC153DC3E01
:1092E0002E09DD3E79BEDD3EA273DE3EA928DF3EBB
:1092F0008DDDDF3E4F92E03EEE46E13E6AFBE13E11
:10930000C4AFE23EFA63E33E0E18E43EFECBE43E19
:10931000CB7FE53E7533E63EFBE6E63E5D9AE73EF3
:109320009C4DE83EB700E93EAEB3E93E8166EA3EB9
:109330003019EB3EBBCBEB3E217EEC3E6330ED3E85
:1093400080E2ED3E7994EE3E4C46EF3EFBF7EF3E79
:1093500085A9F03EEA5AF13E290CF23E43BDF23EA9
:10936000386EF33E071FF43EB1CFF43E3580F53E34
:109370009330F63ECBE0F63EDC90F73EC840F83E38
:109380008EF0F83E2DA0F93EA54FFA3EF7FEFA3ECC
:1093900022AEFB3E275DFC3E040CFD3EBBBAFD3E0B
:1093A0004A69FE3EB217FF3EF3C5FF3E063A003F54
:1093B000FF90003FE4E7003FB53E013F7395013F5A
:1093C0001CEC013FB142023F3299023F9FEF023F46
:1093D000F845033F3D9C033F6DF2033F8948043F3E
:1093E000919E043F84F4043F624A053F2CA0053F50
:1093F000E2F5053F824B063F0EA1063F86F6063F8B
:10940000E84B073F36A1073F6FF6073F924B083FF7
:10941000A1A0083F9BF5083F7F4A093F4E9F093FA7
:1094200009F4093FAD480A3F3D9D0A3FB7F10A3FA5
:109430001C460B3F6B9A0B3FA5EE0B3FC9420C3FFE
:10944000D7960C3FD0EA0C3FB33E0D3F81920D3FC3
:1094500038E60D3FDA390E3F658D0E3FDBE00E3FFB
:109460003B340F3F84870F3FB8DA0F3FD52D103FB5
:10947000DC80103FCDD3103FA726113F6B79113F01
:1094800019CC113FB01E123F3071123F9AC3123FE8
:10949000EE15133F2A68133F50BA133F5F0C143F79
:1094A000585E143F39B0143F0402153FB753153FBF
:1094B00054A5153FD9F6153F4748163F9F99163FCB
:1094C000DFEA163F073C173F188D173F12DE173FA4
:1094D000F52E183FC07F183F73D0183F0F21193F5A
:1094E0009471193F00C2193F55121A3F93621A3FF7
:1094F000B8B21A3FC6021B3FBB521B3F99A21B3F8B
:109500005FF21B3F0C421C3FA2911C3F1FE11C3F1E
:1095100084301D3FD17F1D3F06CF1D3F221E1E3FC1
:10952000266D1E3F12BC1E3FE50A1F3F9F591F3F7D
:1095300041A81F3FCBF61F3F3B45203F9393203F61
:10954000D2E1203FF92F213F067E213FFBCB213F77
:10955000D719223F9967223F43B5223FD302233FC9
:109560004B50233FA99D233FEEEA233F1A38243F67
:109570002C85243F25D2243F041F253FCB6B253F5C
:1095800077B8253F0A05263F8451263FE39D263FB5
:109590002AEA263F5636273F6882273F61CE273F7B
:1095A000401A283F0566283FB0B1283F41FD283FBB
:1095B000B848293F1594293F57DF293F802A2A3F81
:1095C0008E752A3F82C02A3F5B0B2B3F1B562B3FD9
:1095D000BFA02B3F4AEB2B3FB9352C3F0F802C3FD0
:1095E00049CA2C3F69142D3F6F5E2D3F59A82D3F6E
:1095F00029F22D3FDE3B2E3F78852E3FF7CE2E3FC2
:109600005B182F3FA5612F3FD3AA2F3FE6F32F3FD3
:10961000DE3C303FBB85303F7CCE303F2217313FB0
:10962000AD5F313F1DA8313F71F0313FAA38323F65
:10963000C780323FC9C8323FAF10333F7A58333FFB
:1096400029A0333FBCE7333F342F343F8F76343F7C
:10965000CFBD343FF304353FFB4B353FE792353FF9
:10966000B8D9353F6C20363F0467363F7FAD363F73
:10967000DFF3363F233A373F4A80373F55C6373FFF
:10968000430C383F1652383FCB97383F65DD383FA3
:10969000E122393F4268393F85AD393FACF2393F6D
:1096A000B7373A3FA47C3A3F75C13A3F29063B3F62
:1096B000C14A3B3F3B8F3B3F98D33B3FD9173C3F91
:1096C000FC5B3C3F03A03C3FECE33C3FB8273D3F05
:1096D000676B3D3FF9AE3D3F6EF23D3FC5353E3FC6
:1096E000FF783E3F1BBC3E3F1BFF3E3FFC413F3FE0
:1096F000C0843F3F67C73F3FF009403F5C4C403F5D
:10970000A98E403FDAD0403FEC12413FE154413F47
:10971000B796413F70D8413F0B1A423F895B423FA9
:10972000E89C423F29DE423F4C1F433F5160433F8C
:1097300038A1433F00E2433FAB22443F3763443FFD
:10974000A5A3443FF5E3443F2624453F3964453F04
:109750002DA4453F03E4453FBB23463F5463463FAA
:10976000CEA2463F2AE2463F6721473F8560473FFA
:10977000849F473F65DE473F271D483FCA5B483F00
:109780004E9A483FB3D8483FFA16493F2155493FC2
:109790002993493F12D1493FDC0E4A3F874C4A3F4B
:1097A000138A4A3F7FC74A3FCC044B3FFA414B3FA5
:1097B000097F4B3FF8BB4B3FC7F84B3F78354C3FD9
:1097C00008724C3F79AE4C3FCBEA4C3FFD264D3FF3
:1097D00010634D3F029F4D3FD5DA4D3F89164E3FF6
:1097E0001C524E3F908D4E3FE4C84E3F17044F3FF2
:1097F0002B3F4F3F1F7A4F3FF4B44F3FA8EF4F3FEF
:109800003B2A503FAF64503F039F503F37D9503FF2
:109810004A13513F3D4D513F1087513FC2C0513F08
:1098200054FA513FC633523F186D523F49A6523F3A
:1098300059DF523F4918533F1851533FC789533F8F
:1098400055C2533FC3FA533F0F33543F3B6B543F12
:1098500047A3543F31DB543FFB12553FA44A553FC9
:109860002C82553F93B9553FD9F0553FFE27563FBF
:10987000025F563FE595563FA7CC563F4803573FFA
:10988000C739573F2670573F63A6573F7FDC573F86
:109890007912583F5348583F0B7E583FA1B3583F69
:1098A00017E9583F6A1E593F9C53593FAD88593FAD
:1098B0009CBD593F6AF2593F16275A3FA05B5A3F59
:1098C00009905A3F50C45A3F75F85A3F792C5B3F74
:1098D0005A605B3F1A945B3FB8C75B3F34FB5B3F0A
:1098E0008E2E5C3FC7615C3FDD945C3FD1C75C3F1F
:1098F000A3FA5C3F532D5D3FE15F5D3F4D925D3FBD
:1099000097C45D3FBEF65D3FC3285E3FA65A5E3FEB
:10991000678C5E3F05BE5E3F81EF5E3FDB205F3FB1
:1099200012525F3F27835F3F19B45F3FE9E45F3F17
:109930009615603F2146603F8976603FCFA6603F25
:10994000F2D6603FF206613FD036613F8A66613FE2
:109950002296613F98C5613FEAF4613F1A24623F55
:109960002653623F1082623FD7B0623F7BDF623F87
:10997000FC0D633F5A3C633F956A633FAC98633F7D
:10998000A1C6633F73F4633F2122643FAC4F643F41
:10999000147D643F59AA643F7BD7643F7904653FD7
:1099A0005431653F0B5E653FA08A653F10B7653F48
:1099B0005EE3653F880F663F8E3B663F7167663F9B
:1099C0003093663FCCBE663F45EA663F9915673FD8
:1099D000CA40673FD86B673FC196673F87C1673F03
:1099E0002AEC673FA816683F0341683F396B683F20
:1099F0004C95683F3CBF683F07E9683FAE12693F3E
:109A0000323C693F9165693FCC8E693FE4B7693F5D
:109A1000D7E0693FA7096A3F52326A3FD95A6A3F85
:109A20003C836A3F7BAB6A3F95D36A3F8CFB6A3FBE
:109A30005E236B3F0C4B6B3F95726B3FFB996B3F0B
:109A40003BC16B3F58E86B3F500F6C3F24366C3F77
:109A5000D45C6C3F5E836C3FC5A96C3F07D06C3F04
:109A600024F66C3F1D1C6D3FF2416D3FA1676D3FB9
:109A70002D8D6D3F93B26D3FD5D76D3FF2FC6D3F9D
:109A8000EB216E3FBE466E3F6D6B6E3FF88F6E3FB3
:109A90005DB46E3F9ED86E3FBAFC6E3FB0206F3F04
:109AA00083446F3F30686F3FB88B6F3F1BAF6F3F92
:109AB0005AD26F3F73F56F3F6718703F373B703F67
:109AC000E15D703F6680703FC6A2703F02C5703F87
:109AD00017E7703F0809713FD42A713F7A4C713FF4
:109AE000FB6D713F578F713F8EB0713F9FD1713FBA
:109AF0008CF2713F5213723FF433723F7054723FD5
:109B0000C774723FF894723F04B5723FEBD4723F52
:109B1000ACF4723F4714733FBE33733F0E53733F31
:109B20003972733F3F91733F1FB0733FD9CE733F7C
:109B30006EED733FDD0B743F272A743F4B48743F33
:109B40004966743F2284743FD5A1743F62BF743F5D
:109B5000C9DC743F0BFA743F2717753F1D34753FFE
:109B6000ED50753F976D753F1C8A753F7BA6753F1D
:109B7000B3C2753FC6DE753FB3FA753F7A16763FBE
:109B80001B32763F974D763FEC68763F1B84763FDD
:109B9000249F763F07BA763FC4D4763F5BEF763F8B
:109BA000CC09773F1724773F3C3E773F3A58773FC1
:109BB0001372773FC58B773F51A5773FB7BE773F8D
:109BC000F7D7773F10F1773F040A783FD122783FEB
:109BD000773B783FF853783F526C783F8684783FE4
:109BE000939C783F7BB4783F3BCC783FD6E3783F7B
:109BF0004AFB783F9812793FBF29793FC040793FAF
:109C00009A57793F4E6E793FDC84793F439B793F89
:109C100083B1793F9DC7793F91DD793F5EF3793F0D
:109C200004097A3F841E7A3FDD337A3F10497A3F38
:109C30001C5E7A3F02737A3FC1877A3F599C7A3F14
:109C4000CBB07A3F16C57A3F3AD97A3F37ED7A3FA3
:109C50000E017B3FBE147B3F48287B3FAB3B7B3FE5
:109C6000E74E7B3FFC617B3FEA747B3FB2877B3FE3
:109C7000539A7B3FCDAC7B3F20BF7B3F4DD17B3F99
:109C800053E37B3F31F57B3FE9067C3F7A187C3F0D
:109C9000E5297C3F283B7C3F444C7C3F3A5D7C3F40
:109CA000086E7C3FB07E7C3F318F7C3F8A9F7C3F3B
:109CB000BDAF7C3FC9BF7C3FAECF7C3F6CDF7C3FFC
:109CC00003EF7C3F73FE7C3FBC0D7D3FDD1C7D3F81
:109CD000D82B7D3FAC3A7D3F59497D3FDE577D3FD4
:109CE0003D667D3F74747D3F85827D3F6E907D3FF4
:109CF000309E7D3FCCAB7D3F40B97D3F8CC67D3FE4
:109D0000B2D37D3FB1E07D3F88ED7D3F38FA7D3FA6
:109D1000C2067E3F24137E3F5E1F7E3F722B7E3F36
:109D20005E377E3F23437E3FC14E7E3F385A7E3FA3
:109D300088657E3FB0707E3FB17B7E3F8B867E3FE5
:109D40003D917E3FC99B7E3F2DA67E3F69B07E3F01
:109D50007FBA7E3F6DC47E3F34CE7E3FD4D77E3FF8
:109D60004CE17E3F9DEA7E3FC7F37E3FC9FC7E3FCC
:109D7000A4057F3F580E7F3FE4167F3F491F7F3F7A
:109D800087277F3F9D2F7F3F8D377F3F543F7F3F0A
:109D9000F4467F3F6D4E7F3FBF557F3FE95C7F3F7D
:109DA000EC637F3FC76A7F3F7B717F3F08787F3FCF
:109DB0006D7E7F3FAB847F3FC28A7F3FB1907F3F04
:109DC00078967F3F189C7F3F91A17F3FE3A67F3F1E
:109DD0000DAC7F3F0FB17F3FEAB57F3F9EBA7F3F1B
:109DE0002ABF7F3F8FC37F3FCCC77F3FE2CB7F3F00
:109DF000D1CF7F3F98D37F3F37D77F3FAFDA7F3FC9
:109E000000DE7F3F29E17F3F2BE47F3F05E77F3F77
:109E1000B8E97F3F43EC7F3FA7EE7F3FE3F07F3F12
:109E2000F8F27F3FE6F47F3FACF67F3F4AF87F3F92
:109E3000C1F97F3F11FB7F3F39FC7F3F39FD7F3FF9
:109E400013FE7F3FC4FE7F3F4EFF7F3FB1FF7F3F4A
:109E5000ECFF7F3F0000803F00010203040506077E
:109E6000080C101418203040010002000400060005
:109E700008000A000C0010002000400080000001D3
:109E800001010103070100000804020408010101A7
:109E9000000000000000000001020304060708099A
:109EA0000000000001020304C89E0008000000201A
:109EB00024020000B0080008109F000824020020BF
:109EC0003C0B0000386F000801AFA23F0B38C842BE
:109ED00024A3A04003164843A31644033070411343
:109EE000A0014320031905023C105A0244394D01D8
:109EF00027B01101020304050607080C10141820EE
:109F0000304001298CA910B93701105324F4000006
:04000005080001D915
:00000001FF
